:020000040000FA
:0E00000076EF07F01200000004EF08F0120087
:200018000CEF08F01200400EF36E00EE00F00F0E01D81200EA6002D0EE6AFCD7F350E9605B
:060038001200EE6AFCD785
:200040004D454C41435300434634414236515444000004A30000014A756C203137203230AF
:0C00600031322030303A30303A33380072
:2000800001017E0E006F016BFC0E026F010E036F846BC769C869C969C66B9A941200FFDF2A
:2000A0001200D9CFE6FFE1CFD9FF81E941E8F2A407D0F2940101CA5103E0CA2B01E1EFDFEE
:2000C0000101CB51D75CE83404E2200ED724CB6F9174D650016E42E9E7CFD9FF1200D9CF5D
:2000E000E6FFE1CFD9FF81E941E8010184511DE1040108BF19D0400EE66E040EE66E010E5F
:20010000E66EE1EC06F043E90101010E846F016A400E015C09E20150EA6A440FE96E010E39
:20012000EA22EF6A012AF4D710D101010451080A01E106D10F0A01E1CDD0010A01E1C2D04A
:20014000030A75E0010A61E0070A46E0010A01E0FCD00101CA6B0101020E446F01013A0EBC
:20016000456F0101010E466F0101010E476F0101486B100E496F4A6B4B6B01C14CF102C186
:200180004DF103C14EF1100E01014D5F000E01014E5B01014F6B0101030E506F0101F80E03
:2001A000516F5269010E536F546B0101080E556F566B576B586B0101596904010CBF0BD0A3
:2001C000400EE66E440EE66E010EE66EB3EC06F043E90101846BB9D0010105510AE10101F4
:2001E0007F0E006F0101F80E016F0269010E036F09D001017E0E006F0101016BFC0E026FE0
:20020000010E036F0101846BA0D00101040E856F010100290101855D07E204009AD84EEC4C
:2002200005F00101852BF4D70101846B8ED0E8680101C71905E1E868C81902E1E868C9199F
:2002400006E105C1C7F106C1C8F107C1C9F1C70EE96E010EEA6EEE500101051905E1EE5022
:20026000061902E1EE5007192AE1016A01010951015C25E23A0E0101D88009550124EA6A6F
:200280000A0FE96E010EEA22EF50E66E0101C651EA6A860FE96E010EEA22E552E750EF6E01
:2002A0000101C62B0101C72B000EC823000EC9233A0E0101C65D01E160D8012AD7D7010102
:2002C000846B43D05AD80101C769C869C9690101846B3BD00101070E446F05C145F106C1CC
:2002E00046F107C147F108C148F109C149F105C1F6FF06C1F7FF07C1F8FF016A01010951C3
:20030000015C0FE209003A0E0101D88009550124EA6A4A0FE96E010EEA22F5CFEFFF012A65
:20032000EDD704010CBF0BD0400EE66E440EE66E010EE66EB3EC06F043E90101846B05D01C
:200340006592656A62D8ABDE00D042E9E7CFD9FF1200F66A85C1F7FFF86AD890F736F836B8
:20036000F736F836140EA66EF29E550EA76EAA0EA76EA682A69404001200D9CFE6FFE1CF62
:20038000D9FF81E941E8016A0101C651000838E2C6C1DFF10101E06BE16BC70EE96E010E21
:2003A000EA6E0101DF51EE5CF66E0101E051EE58F76E0101E151EE58F86E0150EA6A860F0D
:2003C000E96E010EEA22EF50F56E0D00012A0150EA6A860FE96E010EEA22EF50F56E0C0077
:2003E000012A240EA66EF29E550EA76EAA0EA76EA682020E0101C65D0101C66F0400C4D784
:20040000A69442E9E7CFD9FF1200D9CFE6FFE1CFD9FF81E941E8016AFF0E015C0BE2E8681D
:20042000E85006E0E80600D000D004000000F8D7012AF2D742E9E7CFD9FF1200D9CFE6FFF1
:20044000E1CFD9FF81E941E8645032E16296040100513C0BE842E8420D0828E1180E021972
:2004600023E1040E031920E1100E026F040E036F016A080EF36EF46AF350015C000EF45400
:2004800013E20150EA6A180FE96E040EEA22EF50E66E0150EA6A100FE96E040EEA22E55223
:2004A000E750EF6E012AE5D710D80AD046D808D0040E645C03E162965DD802D0000E01D075
:2004C000010E42E9E7CFD9FF1200D9CFE6FFE1CFD9FF81E941E8040104BF046B0101D46B22
:2004E000CC6BCD6BD26BD36BBDEC03F0016A010EF36EF46AF350015C000EF45419E201014A
:20050000CD5116E1F76A0134FE0BF66EF736EA0EF6260E0EF7220900F5CFDFF10800F5CFE4
:20052000E0F1E0C1FAFF0101DF511400012ADFD7DAD842E9E7CFD9FF1200020E0101CC5D71
:200540000EE19DD80401180E026F040E036F080E016F00BD02D0C80E0BD0880E09D008D901
:200560000401080E016F100E026F040E036F8C0E006F1200040E0101D55D0CE112C45EFF5C
:200580000F015E51000803E20101050E02D00101030ED56F0101CC0510E111D8020E0101B2
:2005A000D45D03E10401840E06D0040104BD02D0C80E01D0880E046F1200B8EF03F0D9CF1D
:2005C000E6FFE1CFD9FF81E942E80101080ED25D000ED3590DE2D251016ED351026ED4515F
:2005E00002E1010E03D0D40506E1020ED46F03D0080E016E026A04010493049102500413C5
:2006000001EB05F401500101D25F0250D35B180ED06F040ED16F0101D6A317D00150021075
:200620002AE0CEC1F6FFCFC1F7FF0800F550D0C1E9FFD1C1EAFFEF6E0101D02B000ED12309
:20064000CE2BCF230106025AE9D70150021013E0CEC1E9FFCFC1EAFFEF50D0C1E9FFD1C1FC
:20066000EAFFEF6E0101D02B000ED123CE2BCF230106025AEAD743E9E7CFD9FF1200D9CFB2
:20068000E6FFE1CFD9FF81E942E8030E04010015026E0151016ED20EE96E010EEA6E01015D
:2006A000EE500124D26FED500220D36F180ECE6F040ECF6F0150021012E0CEC1E9FFCFC1E6
:2006C000EAFFEF50D0C1E9FFD1C1EAFFEF6ED02B000ED123CE2BCF230106025AEBD743E968
:2006E000E7CFD9FF120065980101CD510BE10401080E016F100E026F040E036F840E006FB2
:20070000040123D0040110AF22D00101D2510401165D0101D3510401175904E216C4D2F170
:2007200017C4D3F14CDF0101010ECC6F0401080E016F100E026F040E036F800E006F040103
:20074000180E066F040E076FC80E046F12000101020ECC6F0401056BC80E046F0401080EF5
:20076000016F180E026F040E036FC80E006F12000101CC6B0401046B120004011051600B07
:20078000E842E842E842E842E842000901E012001151070A4BE00B0A49E0070A3AE0010A79
:2007A00027E00B0A23E0020A21E0030A1DE0080A12E0010A0EE00F0A0AE0030A01E0120003
:2007C0000101010ECD6F0101040ED56F120017EF04F06EEF04F00101010ECD6F0101D70EE3
:2007E000CE6F010ECF6F0FD091EF04F0DFEF04F00101010ECD6F040114510101CF6BD80F80
:20080000CE6F010ECF230101D6930101010ED26F12000101010ECD6F04011451EA6AD80FD9
:20082000E96E010EEA2212C4EFFF12001200800E0401105D52E11351030A30E0010A0CE0B3
:20084000030A49E10101010ECD6F01012A0ECE6F0E0ECF6F120E3CD00101010ECD6F0401C5
:200860001251F66EF76AD890F636F736E00EF6260E0EF7220900F5CFCEF10A00F5CFCFF136
:20088000020E0101F76ACE25F66ECF51F7220900F5CFD2F10A00F5CFD3F11DD00101010E35
:2008A000CD6F04011251F66EF76AD890F636F736E40EF6260E0EF7220900F5CFCEF10A0035
:2008C000F5CFCFF1CEC1F6FFCFC1F7FF0800F5500101D26FD36B0101D68312000101010E3E
:2008E000CD6F0F0EE66E4D0EE66E0F0EE66E16EC06F043E9010EE66ED80EE66E010EE66E07
:2009000016EC06F043E912C4D7F10401125104E10101050ED56F12000101060ED56F9DEF77
:2009200006F00401186B196B040110511F0B020A11E0030A0BE0010A34E10101010ECD6FC3
:200940000101D6A12ED0040118832BD00101010ECD6F27D00101010ECD6F040114510F0B70
:20096000080DF3500101E06B000FDF6F040EE02304011451800B01E0010E040DF350010125
:20098000DF250101D06F000E0101E0210101D16FD0C1E9FFEA6EEF50040B03E00401010EA9
:2009A000186F0101CD050AE10101180ECE6F040ECF6F0101D6930101020ED26F1200040167
:2009C000120510E110511F0B00090CE10101010ECD6F030E0401115D03E10101D68102D0AE
:2009E0000101D691040112513BE110511F0B020837E114510F0B000933E00101010ECD6F75
:200A0000040114510F0B080DF3500101E06B000FDF6F040EE02304011451800B01E0010E56
:200A2000040DF3500101DF250101D06F000E0101E0210101D16F030E0401115D02E1840ECF
:200A400003D014AF07D0400ED0C1E9FFD1C1EAFFEF6E1200880ED0C1E9FFD1C1EAFFEF6E91
:200A6000120065A60DD80101D50509E165BA07D0626A0F01110E5C6F0101020ED56F12008A
:200A8000656A0F015C6B65860101010ED56F1200656A0F015C6B0101D56B12000101D5513C
:200AA00001E112006250040B05E00F015C51040B01E069D865B212006250010B05E00F01D2
:200AC0005C51010B01E079D86250100B05E00F015C51100B01E022D86250200B05E00F01F4
:200AE0005C51200B01E057D8030E0101D55D01E212000101E26B040EE25D0FE26250080B7E
:200B00000CE00F015C51080B08E01EEC02F0000901E162960101E22BEED71200D9CFE6FFDF
:200B2000E1CFD9FF81E941E80F015C51016E0F01040E5C6F62986582A198A088A150100B33
:200B400007E1D050080B04E1040051EC00F0F6D7A09801500F015C130101D50ED96F020E52
:200B6000DA6F0101D9C1DFF1DAC1E0F1D907000EDA5B0101DF51E01102E00400F2D742E934
:200B8000E7CFD9FF120065920F015C9562A402D06294FCD712000F014CA10DD0800E04019D
:200BA000005D07E1840E0401045D03E104018C0E006F0F014C91629A1200636A626A0F0162
:200BC0009F0E5D6F0F017B0E5C6F0F015E6B0F0EE66E4D0EE66E0F0EE66E28D843E90F0192
:200BE000160E4C6F62A605D0629600D000D00000F9D76598B8EC03F00401080E016F0401AD
:200C0000100E026F040E036F04018C0E006F0101D6910101D76B0101030ED56F0101F50EAA
:200C2000CA6F450ED76E6B0ED66E1200D9CFE6FFE1CFD9FF84E901EBE9FF02EBEAFF005098
:200C400003E0EE6A0006FBD741E9E7CFD9FF1200040110511F0B010801E01200145101E0E5
:200C60001200060E115D28E11351230A23E0010A0FE0030A1FE10101020ECD6F0101D70510
:200C800005E101014E0ECE6F0E0ECF6F090E0FD00101020ECD6F0101D70505E10101C30E9E
:200CA000CE6F0E0ECF6F0101D70504E11D0E0101D26FD36B0101D68304011051600BE842D8
:200CC000E842E842E842E842010801E0120011510B0A2BE0080A1BE0090A13E0080A09E0E0
:200CE0000B0A05E0080A01E012009BEF06F09CEF06F00101020ECD6F0101DC0ECE6F010E6E
:200D00000DD00101020ECD6F13C4DCF112000101020ECD6F0101DD0ECE6F010ECF6F01012B
:200D2000D6930101010ED26F12000101020ECD6F12C4DDF11200120012000101DE6B0F0163
:200D40001E0E4D6F0401400E096F200E0A6F040E0B6F880E086F0401600E0E6F040E0F6F20
:200D6000400E0C6F1200D9CFE6FFE1CFD9FF84E941E80050400802E2400E006E046A0050F7
:200D8000045C13E204500124E96E000E0220EA6EEF50E66E0450EA6A600FE96E040EEA2287
:200DA000E552E750EF6E042AEAD700EB0DF4400E04010C170C7D880E0C1342E9E7CFD9FF20
:200DC0001200D9CFE6FFE1CFD9FF84E90101DE6B040108BF24D00050095D02E20951006E12
:200DE0000101DE6B0050DE5D13E2DE51EA6A200FE96E040EEA22EF50E66EDE510124E96EC3
:200E0000000E0220EA6EE552E750EF6EDE2BEAD70401400E096F0817087D880E0813010193
:200E2000DE5141E9E7CFD9FF12001201000200000008D8043C00020001020001090229004A
:200E4000010100C032090400000203000000092111010001221D0007058103400001070533
:200E600001034000010403090434034D006900630072006F006300680069007000200054D0
:200E8000006500630068006E006F006C006F0067007900200049006E0063002E00260348B1
:200EA00000490044002000550053004200200042006F006F0074006C006F006100640065E2
:200EC0000072000600FF0901A10119012940150026FF00750895408100190129409100C08B
:200EE0003C0E3C0E650E690E9D0E500CFC50FC9E02E700EF08F01EEE00F02EEE00F0F86A4D
:200F00000101FE0ECA6FED0ED76E570ED66E870ED56ED0B802D00101CA6B12D8040031EC2D
:200F200005F04EEC05F0060E0101D55D05E16550020B02E16FEC00F051EC00F0EFD712006A
:200F4000600ED36E9B8C0101580ED96F020EDA6F0101D9C1DFF1DAC1E0F1D907000EDA5BB7
:200F60000101DF51E01102E00400F2D765A604D06592656A05EC02F00F01140E5F6F010115
:1A0F8000D56B0101D66B0101D76B40EC00F0C088C16AC26AC098C08E12001D
:061000001DEFDEF01200FE
:06100800CDEFC1F0120063
:0E101000000A0000120001001BEFC3F01200E6
:201020000A00CFBC0100F20300000E000000C4BC0100F50600000B000000BFBC01005B00B9
:20104000000005000000BDBC01002807000002000000BBBC01002607000002000000B9BCC4
:2010600001002407000002000000B5BC01001A07000004000000B3BC010022070000020010
:201080000000AFBC01001607000004000000161000001E07000002000000D9CFE6FFE1CF39
:2010A000D9FF89E956E8140EE66EE66AD9500B0FE66EDACFE6FFA3EC88F044E9F00E0B146C
:2010C000400827E106011F0E1114CE6FFF0E1214CF6FCE51CF111DE10F0E0B14040DF3CFAD
:2010E000FFF20201F350E66EE66A000EE66EE66A05EC86F044E9F350096EF4500A6E020156
:20110000FF51E66EE66A78EC85F042E909500A1002E0000E39D0D9500B0FE66EDACFE6FF46
:20112000CBD842E9065007100CE006EBE9FF07EBEAFF1BEBEEFF1CEBEEFF1DEBEEFF1EEBEF
:20114000EFFF04EBE9FF05EBEAFF17EBEEFF18EBEEFF19EBEEFF1AEBEFFF02EBE9FF03EB6B
:20116000EAFF14EBEFFF0201FF5106010D5CCE6F000E0E58CF6F00EBE9FF01EBEAFFCEC6AB
:20118000EEFFCFC6EDFF010E57E9E7CFD9FF1200D9CFE6FFE1CFD9FF86E954E80201140E0D
:2011A000FF6F450E066E076A140E0024086E000E0120096E0701282B000E292328510A6E81
:2011C00029510B6E0C6A0D6A640E0E6E82EB0FF0106A116A03010651126E0751136E0851D3
:2011E000146E0951156E03EBE9FF04EBEAFFEE50166EEE50176EEE50186EEF50196ED950AA
:20120000060FE66EDACFE6FF57D842E9140EE66EE66AD950060FE66EDACFE6FF44ECA5F0D2
:2012200044E9F350106EF450116E140E06010024CE6F000E0120CF6FCEC6E6FFE66EE66AE9
:2012400003EBE9FF04EBEAFF040EE926000EEA22E9CFD0F6EACFD1F6E9CFE6FFEACFE6FF6C
:2012600027EC84F045E9140EE66EE66AD950060FE66EDACFE6FFFDEC88F044E9000EF36ED6
:20128000F46A55E9E7CFD9FF1200D9CFE6FFE1CFD9FF83E90201FF5106010024CE6F000EC8
:2012A0000120CF6FCEC6E6FFE66E78EC85F042E941E9E7CFD9FF1200D9CFE6FFE1CFD9FF1F
:2012C00083E900EBE9FF01EBEAFF020EE926000EEA22EECFE6FFEECFE6FF0FECA5F042E9C2
:2012E000F3CFCEF6F4CFCFF600EBE9FF01EBEAFF020EE926000EEA22F3CFEEFFCFC6EDFFCF
:2013000000EBE9FF01EBEAFF040EE926000EEA22EECFE6FFEECFE6FF0FECA5F042E9F3CF29
:20132000CEF6F4CFCFF600EBE9FF01EBEAFF040EE926000EEA22F3CFEEFFCFC6EDFF00EB63
:20134000E9FF01EBEAFF0A0EE926000EEA22EECFE6FFEECFE6FF0FECA5F042E9F3CFCEF60A
:20136000F4CFCFF600EBE9FF01EBEAFF0A0EE926000EEA22F3CFEEFFCFC6EDFF41E9E7CFEC
:20138000D9FF1200C10E796E7B6A7A6A98809886050EB16E736EA282A082A580A582A380E6
:2013A000A3821200D9CFE6FFE1CFD9FF83E943E8FC0EA31600EBE9FF01EBEAFFEE50036E30
:2013C000EE50046EEF50056E030EA31203EBFCF104EBFDF105EBFEF144E9E7CFD9FF120081
:2013E000FF0EE3500001FF6F480E01D04C0EE76EE72EFED7E76AE72EFED7FF2FF7D7120035
:20180000D9CFE6FFE1CFD9FF81E942E8016A026A030ED89002BE03D0015C000E02580CE289
:20182000FC0E0124E96E000E0220EA6E010EEF6E012A000E0222ECD70301FF6BF66BF269E4
:20184000F369F469F569F969FA69FB69FC6963EC6DF07C0EE66E010EE66ED2EC10F042E90D
:20186000000904E101010F6B010E01D0000EF36EF46A43E9E7CFD9FF1200D9CFE6FFE1CF48
:20188000D9FF87E94BE804EBE9FF05EBEAFF260EE926000EEA22EE500B6EED500C6E0B0E39
:2018A0000D6E04EBE9FF05EBEAFF2C0EE926000EEA22EECFCEF6EECFCFF6EECFD0F6EFCF56
:2018C000D1F604EBE9FF05EBEAFF300EE926000EEA22CEC6EEFFCFC6EEFFD0C6EEFFD1C60D
:2018E000EEFF02EBE9FF03EBEAFF2A0EE926000EEA22FF0EEE18096EFF0EED180A6E0B507F
:201900000C1017E1010EE66ED9500B0FE66EDACFE6FF04EBE6FF05EBE6FFA0EC17F045E9C1
:20192000F3CFCEF6F4CFCFF60601F350F4101CE119D00B500F0B18E0010EE66ED9500B0F52
:20194000E66EDACFE6FF04EBE6FF05EBE6FFA0EC17F045E9F3CFCEF6F4CFCFF60601F350E3
:20196000F41002E11B0E0D6E1B0E0D5C01E17DD10D5001E17AD1D9500B0FE66EDACFE6FF6B
:2019800004EBE6FF05EBE6FF4EEC20F044E9106E020E105C01E169D1105001E05FD104EBB1
:2019A000E9FF05EBEAFF2A0EE926000EEA22EE50076EED50086E3F0E0716000E08160050B9
:2019C000010A63E0010A01E04CD1080E071801E1085001E146D10D6A6D0E0E6E116A0B0E46
:2019E000115C01E33ED104EBE9FF05EBEAFF1B0EE926000EEA22E9CFCEF6EACFCFF611502A
:201A00000601EA6AE924E96ECF51EA22EF500E6E02EBE9FF03EBEAFF1B0EE926000EEA2222
:201A2000E9CFCEF6EACFCFF61150EA6AE924E96ECF51EA22EF500F6E0E50E66EE66A34EC89
:201A4000DDF042E9F3CFCEF6F4CFCFF6F3CFE6FFF4CFE6FF0F50E66EE66A34ECDDF042E916
:201A6000E552E7CFCFF6E552E7CFCEF6F3CFD0F6F4CFD1F60601F350CE1901E0EAD0D15103
:201A8000CF1901E0E6D0112AAAD7060107500914CE6F08500A14CF6FCE51CF1101E0E1D00E
:201AA0000F0E071801E1085001E1DBD00D6A6D0E0E6E02EBE9FF03EBEAFF1B0EE926000EC3
:201AC000EA22EF502A085CE0116A080E115C58E204EBE9FF05EBEAFF1B0EE926000EEA2213
:201AE000E9CFCEF6EACFCFF61150EA6AE924E96ECF51EA22EF500E6E02EBE9FF03EBEAFF40
:201B00001B0EE926000EEA22E9CFCEF6EACFCFF61150EA6AE924E96ECF51EA22EF500F6E78
:201B20002A0E0F5C2DE03F0E0F5C28E00E50E66EE66A34ECDDF042E9F3CFCEF6F4CFCFF60D
:201B4000F3CFE6FFF4CFE6FF0F50E66EE66A34ECDDF042E9E552E7CFCFF6E552E7CFCEF6B8
:201B6000F3CFD0F6F4CFD1F60601F350CE1902E1D151CF1903E00B0E0D6E02D0112AA5D735
:201B800002EBE9FF03EBEAFF1B0EE926000EEA22080EE926000EEA22EF502A0862E00D50F8
:201BA00060E1080E116E0B0E115C5BE204EBE9FF05EBEAFF1B0EE926000EEA22E9CFCEF60E
:201BC000EACFCFF61150EA6AE924E96ECF51EA22EF500E6E02EBE9FF03EBEAFF1B0EE926A3
:201BE000000EEA22E9CFCEF6EACFCFF61150EA6AE924E96ECF51EA22EF500F6E2A0E0F5C2D
:201C000030E03F0E0F5C28E00E50E66EE66A34ECDDF042E9F3CFCEF6F4CFCFF6F3CFE6FF25
:201C2000F4CFE6FF0F50E66EE66A34ECDDF042E9E552E7CFCFF6E552E7CFCEF6F3CFD0F6F6
:201C4000F4CFD1F60601F350CE1902E1D151CF1903E00B0E0D6E05D0112AA5D7015001E1A6
:201C60000D6A0B2A000E0C2283D60D504CE9E7CFD9FF1200D9CFE6FFE1CFD9FF84E948E83F
:201C800001EBE9FF02EBEAFF020EE926000EEA22EE50046EEE50056EEE50066EEF50076E9A
:201CA000FC0E086E000E096E600E0A6E000E0B6E08EBE9FF09EBEAFF082A000E0922EF5050
:201CC00029E101500A1802E102500B1823E00AEBE9FF0BEBEAFF020EE926000EEA220450E3
:201CE000EE1818E10550EE1815E10650EE1812E10750EE180FE100500BE101EBE9FF02EBFB
:201D0000EAFF160EE926000EEA22EF50010B02E0010E10D0340E0A26000E0B220AEBCEF60B
:201D20000BEBCFF6FC0E0601CE19C2E1000ECF19BFE1000E49E9E7CFD9FF1200D9CFE6FF4A
:201D4000E1CFD9FF86E948E80D6A03EBE9FF04EBEAFFEE50066EED50076E06EBE9FF07EB08
:201D6000EAFF230EE926000EEA22EF5002E1070E6FD003EBE9FF04EBEAFF2C0EE926000EA5
:201D8000EA22EECFCEF6EECFCFF6EECFD0F6EFCFD1F603EBE9FF04EBEAFF300EE926000E23
:201DA000EA22CEC6EEFFCFC6EEFFD0C6EEFFD1C6EEFF01EBE9FF02EBEAFFEE50ED1016E131
:201DC000010EE66E01EBE6FF02EBE6FF03EBE6FF04EBE6FFA0EC17F045E9F3CFCEF6F4CF4C
:201DE000CFF60601F350F41024E121D001EBE9FF02EBEAFFEECFCEF6EFCFCFF60601CE5106
:201E00000F0B17E0010EE66E01EBE6FF02EBE6FF03EBE6FF04EBE6FFA0EC17F045E9F3CF81
:201E2000CEF6F4CFCFF60601F350F41002E11B0E0D6E01EBE6FF02EBE6FF03EBE6FF04EB1C
:201E4000E6FF4EEC20F044E9086E085003E00B0E0D6EECD003EBE9FF04EBEAFF0E0EE9264C
:201E6000000EEA22EE6AEE6AEE6AEE6A03EBE9FF04EBEAFF020EE926000EEA22EECFCEF680
:201E8000EECFCFF6EECFD0F6EFCFD1F603EBE9FF04EBEAFF060EE926000EEA22CEC6EEFF4C
:201EA000CFC6EEFFD0C6EEFFD1C6EEFF03EBE9FF04EBEAFF0A0EEB6A0B0EEB6A03EBE9FF3A
:201EC00004EBEAFF0C0EEB6A0D0EEB6A080402E10B0E14D003EBE9FF04EBEAFF160EE9267E
:201EE000000EEA22EF50010BE66E03EBE6FF04EBE6FFC0DE43E9000903E0220E0D6E62D0EF
:201F000003EBE9FF04EBEAFF060EE926000EEA22EECFE6FFEECFE6FFEECFE6FFEECFE6FF4E
:201F200006EBE6FF07EBE6FF97EC29F046E9FCC1CEF6FDC1CFF6FEC1D0F6FFC1D1F6060112
:201F4000CE51096ECF510A6ED0510B6ED1510C6E0301FD5106E073EC2DF0000902E0090E67
:201F600066D003EBF7F304EBF8F30301F951091808E1FA510A1805E1FB510B1802E1FC512F
:201F80000C1820E0FF6B06EBE9FF07EBEAFFEECFE6FFEECFE6FF09EBE6FF0AEBE6FF0BEB12
:201FA000E6FF0CEBE6FF9BEC70F046E9000902E1080E0D6E09EBF9F30AEBFAF30BEBFBF327
:201FC0000CEBFCF303EBE9FF04EBEAFF160EE926000EEA22EF94770E005C03E0610E005C0E
:201FE00013E103EBE9FF04EBEAFF160EE926000EEA22EF8003EBE9FF04EBEAFF160EE926A2
:20200000000EEA22EF9212D003EBE9FF04EBEAFF160EE926000EEA22EF9003EBE9FF04EB04
:20202000EAFF160EE926000EEA22EF820D5049E9E7CFD9FF1200D9CFE6FFE1CFD9FF87E945
:2020400053E8176A04EBE9FF05EBEAFFEE50186EED50196E18EBE9FF19EBEAFF220EE92675
:20206000000EEA22EF50020A07E0030A05E1F80E136E0F0E146E03D0F80E136E1468156AA6
:20208000166A0F681068116A126A04EBE9FF05EBEAFF060EE926000EEA22EE500B6EEE50F8
:2020A0000C6EEE500D6EEF500E6E0BEBE6FF0CEBE6FF0DEBE6FF0EEBE6FF18EBE6FF19EBD4
:2020C000E6FF06EC38F046E9FCC1CEF6FDC1CFF6FEC1D0F6FFC1D1F60601CE51076ECF5107
:2020E000086ED051096ED1510A6E07500F180BE10850101808E10950111805E10A50121879
:2021000002E1080E1DD018EBE9FF19EBEAFF140EE926000EEA22EE50075CEE500858EE5039
:202120000958EE500A5802E30A0E176E1350075C145008581550095816500A5802E33C0ED5
:20214000176E04EBE9FF05EBEAFF060EE926000EEA2207EBEEFF08EBEEFF09EBEEFF0AEB78
:20216000EFFFD9CFE9FFDACFEAFFEF06EECFCEF6EF5AEECFCFF6EF5AEECFD0F6EF5AEFCF3B
:20218000D1F6D880CE55000ECF55000ED055000ED15503E2175001E178D7175054E9E7CF8D
:2021A000D9FF1200D9CFE6FFE1CFD9FF83E943E8036A00EBE9FF01EBEAFF230EE926000E26
:2021C000EA22EF6A00EBE9FF01EBEAFF000EEE6E0A0EED6E47EC75F0F350046EF450056E11
:2021E00004EBE9FF05EBEAFFEF5005E0060E036E01010F6F56D004EBE9FF05EBEAFFEE52F0
:20220000EF50010B32E004EBE9FF05EBEAFF020EE926000EEA22EECFCEF6EFCFCFF606016D
:20222000D06BD16B00EBE9FF01EBEAFF180EE926000EEA22CEC6EEFFCFC6EEFFD0C6EEFFAA
:20224000D1C6EEFF04EBE9FF05EBEAFF020EE926000EEA22D880EE54020EED5406E2210E0F
:20226000036E01010F6F03501DD000EBE6FF01EBE6FF1CD842E9036E035013E100EBE6FFE5
:2022800001EBE6FF81D942E9036E03500AE100EBE9FF01EBEAFF230EE926000EEA22010E28
:2022A000EF6E035044E9E7CFD9FF1200D9CFE6FFE1CFD9FF83E946E8056A00EBE9FF01EBC4
:2022C000EAFFEECFE6FFEECFE6FFE66AE66AE66AE66A9BEC70F046E9010805E0080E056E04
:2022E00001010F6F4CD100EBE9FF01EBEAFFEE50076EED50086E07EBE9FF08EBEAFFFE0E71
:20230000E926010EEA22EF50550801E0BCD007EBE9FF08EBEAFFFF0EE926010EEA22EF505E
:20232000AA0801E0B0D007EBE9FF08EBEAFF360EE926000EEA22EF5046084CE107EBE9FFD3
:2023400008EBEAFF360EE926000EEA22E92AEA22EF5041083FE107EBE9FF08EBEAFF360E73
:20236000E926000EEA22020EE926000EEA22EF50540830E107EBE9FF08EBEAFF360EE92646
:20238000000EEA22030EE926000EEA22EF50310821E107EBE9FF08EBEAFF260EE926000E68
:2023A000EA22EF50290816E100EBE9FF01EBEAFF020EE926000EEA22EE6AEE6AEE6AEE6A69
:2023C00000EBE9FF01EBEAFF220EE926000EEA22020E56D007EBE9FF08EBEAFF520EE926A1
:2023E000000EEA22EF5046084EE107EBE9FF08EBEAFF520EE926000EEA22E92AEA22EF506A
:20240000410841E107EBE9FF08EBEAFF520EE926000EEA22020EE926000EEA22EF5054083E
:2024200032E107EBE9FF08EBEAFF520EE926000EEA22030EE926000EEA22EF50330823E192
:2024400007EBE9FF08EBEAFF420EE926000EEA22EF50290818E100EBE9FF01EBEAFF020E2C
:20246000E926000EEA22EE6AEE6AEE6AEE6A00EBE9FF01EBEAFF220EE926000EEA22030EC1
:20248000EF6E000E7DD000EBE9FF01EBEAFFEE50036EED50046E03EBE9FF04EBEAFFFE0EC4
:2024A000E926010EEA22EF5055080BE103EBE9FF04EBEAFFFF0EE926010EEA22EF50AA0894
:2024C00003E00101040E59D003EBE9FF04EBEAFFBE0EE926010EEA22080EE926000EEA22F9
:2024E000EECFCEF6EECFCFF6EECFD0F6EFCFD1F600EBE9FF01EBEAFF020EE926000EEA22F0
:20250000CEC6EEFFCFC6EEFFD0C6EEFFD1C6EEFF03EBE9FF04EBEAFFBE0EE926010EEA220D
:20252000040EE926000EEA22EF50066E06500B0A1FE0070A1DE0080A10E0020A0EE0080A27
:202540000CE00F0A18E100EBE9FF01EBEAFF220EE926000EEA22010E09D000EBE9FF01EBD5
:20256000EAFF220EE926000EEA22020EEF6E07D001011C0E02D00101050E0F6F056E05507C
:2025800047E9E7CFD9FF1200D9CFE6FFE1CFD9FF83E953E80F6A00EBE9FF01EBEAFFEECFD1
:2025A000E6FFEECFE6FF00EBE9FF01EBEAFF020EE926000EEA22EECFE6FFEECFE6FFEECFB2
:2025C000E6FFEECFE6FF9BEC70F046E9010802E0080EA8D200EBE9FF01EBEAFFEE50106E7F
:2025E000ED50116E10EBE9FF11EBEAFFFE0EE926010EEA22EF5055080BE110EBE9FF11EBBA
:20260000EAFFFF0EE926010EEA22EF50AA0802E0030E88D210EBE9FF11EBEAFF0D0EE9266A
:20262000000EEA22EF50E66E00EBE9FF01EBEAFF210EE926000EEA22E552E750EF6E10EB27
:20264000E9FF11EBEAFF0E0EE926000EEA22EECFCEF6EFCFCFF60601D06BD16B00EBE9FF13
:2026600001EBEAFF020EE926000EEA22EE50CE27EE50CF23EE50D023EE50D12300EBE9FFB3
:2026800001EBEAFF060EE926000EEA22CEC6EEFFCFC6EEFFD0C6EEFFD1C6EEFF10EBE9FF3B
:2026A00011EBEAFF100EE926000EEA22EF50E66E00EBE9FF01EBEAFF200EE926000EEA225C
:2026C000E552E750EF6E10EBE9FF11EBEAFF160EE926000EEA22EECFCEF6EFCFCFF6D06BDB
:2026E000D16B00EBE9FF01EBEAFF1C0EE926000EEA22CEC6EEFFCFC6EEFFD0C6EEFFD1C686
:20270000EEFF00EBE9FF01EBEAFF1C0EE926000EEA22EECFCEF6EECFCFF6EECFD0F6EFCF8D
:20272000D1F6CE51CF11D011D11120E110EBE9FF11EBEAFF240EE926000EEA22EECFCEF66B
:20274000EECFCFF6EECFD0F6EFCFD1F600EBE9FF01EBEAFF1C0EE926000EEA22CEC6EEFF73
:20276000CFC6EEFFD0C6EEFFD1C6EEFF00EBE9FF01EBEAFF1C0EE926000EEA22EECFE6FF33
:20278000EECFE6FFEECFE6FFEECFE6FF00EBE9FF01EBEAFF200EE926000EEA22EFCFE6FFB1
:2027A000E66AE66AE66A26ECD6F0E552E5CFD1F6E5CFD0F6E5CFCFF6E7CFCEF600EBE9FF5F
:2027C00001EBEAFF060EE926000EEA22EE500601CE27EE50CF23EE50D023EE50D12300EB2F
:2027E000E9FF01EBEAFF0A0EE926000EEA22CEC6EEFFCFC6EEFFD0C6EEFFD1C6EEFF10EBD6
:20280000E9FF11EBEAFF110EE926000EEA22EECFCEF6EFCFCFF600EBE9FF01EBEAFF120ED7
:20282000E926000EEA22CEC6EEFFCFC6EDFF10EBE9FF11EBEAFF130EE926000EEA22EE501D
:20284000ED1013E010EBE9FF11EBEAFF130EE926000EEA22EECFCEF6EFCFCFF6CE51076EDE
:20286000CF51086E096A0A6A10D010EBE9FF11EBEAFF200EE926000EEA22EE50076EEE50EB
:20288000086EEE50096EEF500A6E10EBE9FF11EBEAFF0B0EE926000EEA22EE50126EED5051
:2028A000136E1250131009E0010E1214CE6FCF6B010ECE1904E1CF5102E1210E33D110EB71
:2028C000E9FF11EBEAFF0B0EE926000EEA22EECFE6FFEECFE6FF200EE66EE66A10EBE9FFF0
:2028E00011EBEAFF110EE926000EEA22EECFE6FFEECFE6FF92ECD5F0E552E5CFD3F6E7CFBA
:20290000D2F610EBE9FF11EBEAFF0B0EE926000EEA22EECFD4F6EFCFD5F60601D407D55BC3
:20292000D251D425D06FD351D521D16FD0C6E6FFE66EB2ECD4F0E552E5CFCFF6E7CFCEF687
:202940000601CE51036ECF51046E056A066A03EBD2F604EBD3F605EBD4F606EBD5F600EBA0
:20296000E9FF01EBEAFF0A0EE926000EEA22EE50D227EE50D323EE50D423EE50D523D9505A
:20298000070FE96EDACFEAFFD251EE5CCE6FD351EE58CF6FD451EE58D06FD551EE58D16F90
:2029A000CE510B6ECF510C6ED0510D6ED1510E6E00EBE9FF01EBEAFF210EE926000EEA22AB
:2029C000EFCFE6FFE66AE66AE66A0BEBE6FF0CEBE6FF0DEBE6FF0EEBE6FF4CECD5F0E552BE
:2029E000E5CFD1F6E5CFD0F6E5CFCFF6E7CFCEF600EBE9FF01EBEAFF140EE926000EEA22FC
:202A0000CEC6EEFFCFC6EEFFD0C6EEFFD1C6EEFF00EBE9FF01EBEAFF140EE926000EEA22B9
:202A2000F50EEE5C0F0EEE58000EEE58000EEE580AE200EBE9FF01EBEAFF220EE926000E5D
:202A4000EA22010E1AD000EBE9FF01EBEAFF140EE926000EEA22F50EEE5CFF0EEE58000ED0
:202A6000EE58000EEE580BE200EBE9FF01EBEAFF220EE926000EEA22020EEF6E02D01C0E65
:202A80000F6E01010B6B0C6B0D6B0E6B00EBE9FF01EBEAFF120EE926000EEA22EECFD2F663
:202AA000EFCFD3F60601040ED46FD451D2C6CEF6D3C6CFF606E00601D890CF33CE33E80410
:202AC000FBE10601D06BD16B00EBE9FF01EBEAFF0A0EE926000EEA22EE50CE27EE50CF2350
:202AE000EE50D023EE50D12300EBE9FF01EBEAFF0E0EE926000EEA22CEC6EEFFCFC6EEFF83
:202B0000D0C6EEFFD1C6EEFF10EBE9FF11EBEAFF0B0EE926000EEA22D880EE54020EED54B9
:202B200002E2210E0F6E0F5002E00FEB0FF10F5054E9E7CFD9FF1200D9CFE6FFE1CFD9FF79
:202B400083E944E8036A046A056A066A00EBE9FF01EBEAFF140EEB6A150EEB6A00EBE9FFB9
:202B600001EBEAFF140EE926000EEA22EECFCEF6EFCFCFF60601CE51036ECF51046E056A99
:202B8000066A03EBCEF604EBCFF605EBD0F606EBD1F6100E1F0B08E00601D890CE37CF3747
:202BA000D037D137E806F9E10601CE51036ECF51046ED051056ED151066E00EBE9FF01EB2C
:202BC000EAFF1A0EE926000EEA22EECFCEF6EFCFCFF6D06BD16BD950030FE96EDACFEAFF1C
:202BE000CE51EE12CF51EE12D051EE12D151EE1203EBFCF104EBFDF105EBFEF106EBFFF1DB
:202C000045E9E7CFD9FF1200D9CFE6FFE1CFD9FF85E94CE802EBE9FF03EBEAFFEE50056ED2
:202C2000ED50066E02EBE9FF03EBEAFF300EE926000EEA22EE500D6EEE500E6EEE500F6EA2
:202C4000EF50106E200EE66EE66AE66AE66A05EBE9FF06EBEAFF180EE926000EEA22EECF87
:202C6000E6FFEECFE6FFEECFE6FFEECFE6FF4CECD5F000EBE9FF01EBEAFFEECFE6FFEECF85
:202C8000E6FFE66AE66A4CECD5F0E552E5CFD1F6E5CFD0F6E5CFCFF6E7CFCEF60601CE516D
:202CA000086E05EBE9FF06EBEAFF220EE926000EEA22EF50010A02E0030A1EE10D500101FC
:202CC0000B1908E10E500C1905E10F500D1902E110500E1911E005EBE9FF06EBEAFF210EBD
:202CE000E926000EEA22EFCFE6FF08EBE6FF87ECD4F041E9E750086E0DEBE6FF0EEBE6FF67
:202D00000FEBE6FF10EBE6FF05EBE6FF06EBE6FF97EC29F046E9FCC1CEF6FDC1CFF6FEC1BB
:202D2000D0F6FFC1D1F60601CE51096ECF510A6ED0510B6ED1510C6EE66A05EBE9FF06EBC2
:202D4000EAFFEECFE6FFEECFE6FF08EBCEF6CF6BD06BD16BD950090FE96EDACFEAFFEE5076
:202D6000CE27EE50CF23EE50D023EE50D123CEC6E6FFCFC6E6FFD0C6E6FFD1C6E6FF50ECA5
:202D800074F047E9000902E1076A02D0010E076E07504DE9E7CFD9FF1200D9CFE6FFE1CF82
:202DA000D9FF87E94DE8136A00EBE9FF01EBEAFF220EE926000EEA22EF50020A0BE0030AD5
:202DC00009E10F681068116A126AF80E0B6E0F0E0C6E07D00F681068116A126AF80E0B6ED1
:202DE0000C680D6A0E6A025003100410051009E0010E021809E1035007E1045005E105501C
:202E000003E1020E136E81D0135001E07ED002EBE6FF03EBE6FF04EBE6FF05EBE6FF00EB21
:202E2000E6FF01EBE6FF06EC38F046E9FCC1CEF6FDC1CFF6FEC1D0F6FFC1D1F60601CE515D
:202E4000076ECF51086ED051096ED1510A6E07500F180BE10850101808E10950111805E1FA
:202E60000A50121802E1010E0FD00750081009100A1009E0010E071809E1085007E10950C1
:202E800005E10A5003E1020E136EBED70B50075C0C5008580D5009580E500A5802E3020EFB
:202EA000136EE66AE66AE66AE66AE66A02EBE6FF03EBE6FF04EBE6FF05EBE6FF00EBE6FFE3
:202EC00001EBE6FF12EC3BF04BE9FCC1CEF6FDC1CFF6FEC1D0F6FFC1D1F60601CE510F1867
:202EE0000BE1CF51101808E1D051111805E1D151121802E1010E136E87EB02F088EB03F0FC
:202F000089EB04F08AEB05F07FD7010EE66EE66AE66AE66AE66AE66AE66AE66AE66A00EBBB
:202F2000E6FF01EBE6FF12EC3BF04BE9020E135C02E1010E01D0000E4EE9E7CFD9FF120057
:202F4000D9CFE6FFE1CFD9FF86E957E803EBE9FF04EBEAFFEE50086EED50096E03EBE9FFC2
:202F600004EBEAFF2C0EE926000EEA22EE500E6EEE500F6EEE50106EEF50116E03EBE9FF51
:202F800004EBEAFF300EE926000EEA22EE50166EEE50176EEE50186EEF50196E200EE66E61
:202FA000E66AE66AE66A08EBE9FF09EBEAFF180EE926000EEA22EECFE6FFEECFE6FFEECF19
:202FC000E6FFEECFE6FF4CECD5F0E552E5CFD1F6E5CFD0F6E5CFCFF6E7CFCEF60601CE5128
:202FE0001C6E1C50E66EE66A01EBE9FF02EBEAFFEECFE6FFEECFE6FFB2ECD4F0E552E5CFFC
:20300000CFF6E7CFCEF60601CE511A6E08EBE9FF09EBEAFF220EE926000EEA22EF50010A68
:2030200001E0030A0E500F101010111011E008EBE9FF09EBEAFF210EE926000EEA22EFCF25
:20304000E6FF1AEBE6FF87ECD4F041E9E7501A6EF80E126E1368146A156A00500DE101EB59
:20306000E9FF02EBEAFFEECFCEF6EFCFCFF60601CE510F0B01E050D11A5009E101EBE9FF24
:2030800002EBEAFF1C50EE5C000EED5802E200505DE00E500F101010111005E1166A176A3B
:2030A000186A196A53D0005022E008EBE9FF09EBEAFF210EE926000EEA22EF50E66EE66AA3
:2030C0001C50E66EE66A92ECD5F001EBE9FF02EBEAFFEECFE6FFEECFE6FFB2ECD4F0E55216
:2030E000E5CFCFF6E7CFCEF60601CE5101D0010E1B6E1B502BE016EBE6FF17EBE6FF18EB08
:20310000E6FF19EBE6FF08EBE6FF09EBE6FF06EC38F046E9FCC1CEF6FDC1CFF6FEC1D0F65E
:20312000FFC1D1F60601CE51166ECF51176ED051186ED151196E1250165C1350175814505F
:2031400018581550195802E21B06D3D71250165C13501758145018581550195801E3D6D0A0
:2031600003EBE9FF04EBEAFF300EE926000EEA2216EBEEFF17EBEEFF18EBEEFF19EBEFFF7B
:2031800016EBE6FF17EBE6FF18EBE6FF19EBE6FF08EBE6FF09EBE6FF97EC29F046E9FCC158
:2031A000CEF6FDC1CFF6FEC1D0F6FFC1D1F60601CE510A6ECF510B6ED0510C6ED1510D6E4D
:2031C000165001010B193AE117500C1937E118500D1934E119500E1931E11AEBCEF606018F
:2031E000CF6BD06BD16BD9500A0FE96EDACFEAFFEE50CE27EE50CF23EE50D023EE50D1232D
:2032000008EBE9FF09EBEAFF0E0EE926000EEA22EE50CE5DEE50CF59EE50D059EE50D15913
:203220000DE3030ED26F08EBE9FF09EBEAFF220EE926000EEA22EF50D25D6BE10301FD512F
:2032400008E073EC2DF0000904E0000EF36EF46A85D00301F76BF86BFF6B08EBE9FF09EBF9
:20326000EAFFEECFE6FFEECFE6FF1AEBCEF60601CF6BD06BD16BD9500A0FE96EDACFEAFF75
:20328000EE50CE27EE50CF23EE50D023EE50D123CEC6E6FFCFC6E6FFD0C6E6FFD1C6E6FF7E
:2032A0009BEC70F046E9010803E0066A076A28D000501EE0200EE66EE66A1C50E66EE66A03
:2032C00001EBE9FF02EBEAFFEECFE6FFEECFE6FFB5ECD4F092ECD5F008EBE9FF09EBEAFFA0
:2032E000FE0EE350EE24066E41E9E550ED2007D008EBE9FF09EBEAFFEE50066EED50076EAA
:203300000301F969FA69FB69FC6924D00301010EFE6F066A076A1ED0200EE66EE66A1C509A
:20332000E66EE66A01EBE9FF02EBEAFFEECFE6FFEECFE6FFB5ECD4F092ECD5F008EBE9FF78
:2033400009EBEAFFFE0EE350EE24066E41E9E550ED20076E06EBF3FF07EBF4FF58E9E7CF2B
:20336000D9FF1200D9CFE6FFE1CFD9FF87E941E8076A01010F6B02EBE9FF03EBEAFFEE6AC4
:20338000ED6A02EBE6FF03EBE6FF04EBE6FF05EBE6FF8DD844E9000918E001EBE6FF02EB37
:2033A000E6FF03EBE6FF04EBE6FF05EBE6FF91D945E9076E07500BE1005009E004EBE6FF4F
:2033C00005EBE6FF0BD842E901D0140E076E07EB0FF1075042E9E7CFD9FF1200D9CFE6FF01
:2033E000E1CFD9FF83E94DE800EBE9FF01EBEAFF260EE926000EEA22EE500C6EED500D6E2F
:20340000D950040FE66EDACFE6FF00EBE6FF01EBE6FF40EC28F044E9036E035043E1D9506B
:203420000C0FE66EDACFE6FF00EBE6FF01EBE6FF09EC22F044E9F3500E6EF4500F6E04EB4B
:20344000CEF605EBCFF606EBD0F607EBD1F60601D06BD16B0EEBE9FF0FEBEAFF1A0EE9260A
:20346000000EEA22CEC6EEFFCFC6EDFF086A096A0A6A0B6A0EEBE9FF0FEBEAFF140EEB6A27
:20348000150EEB6AD9500C0FE66EDACFE6FF00EBE6FF01EBE6FF04EC16F044E9010802E0DF
:2034A000090E036E03504EE9E7CFD9FF1200D9CFE6FFE1CFD9FF85E94CE8010E056E086AAF
:2034C00002EBE9FF03EBEAFF2C0EE926000EEA22EECFCEF6EECFCFF6EECFD0F6EFCFD1F6D2
:2034E00002EBE9FF03EBEAFF300EE926000EEA22CEC6EEFFCFC6EEFFD0C6EEFFD1C6EEFFAF
:20350000010EE66E00EBE6FF01EBE6FF02EBE6FF03EBE6FF15DD45E9F3500F6EF450106E60
:203520000F50101003E11B0E056ECAD0010E076E050401E0BDD0066A00EBE9FF01EBEAFFDF
:20354000EE50096EED500A6EE66A00EBE6FF01EBE6FF02EBE6FF03EBE6FFF2DC45E9F3502C
:203560000F6EF450106E0F50101006E00FEBE9FF10EBEAFFEF50086E00EBE9FF01EBEAFF84
:20358000EE2A000EEF220F50101009E0E50E085C02E0085004E1062A0750065CD5E30F5016
:2035A00010106EE102EBE9FF03EBEAFF300EE926000EEA22EE500B6EEE500C6EEE500D6E61
:2035C000EF500E6E0B5001010B1933E10C500C1930E10D500D192DE10E500E192AE102EBFB
:2035E000E9FF03EBEAFFEE50EFCFEAFFE96E220EE926000EEA22EF50030835E102EBE9FF42
:2036000003EBEAFF060EE926000EEA220BEBEEFF0CEBEEFF0DEBEEFF0EEBEFFF010EE66EA0
:2036200002EBE6FF03EBE6FF33DA43E915081EE11AD002EBE9FF03EBEAFF060EE926000EC9
:20364000EA220BEBEEFF0CEBEEFF0DEBEEFF0EEBEFFF010EE66E02EBE6FF03EBE6FF18DAD1
:2036600043E9150803E1020E056E62D700EBE9FF01EBEAFF09EBEEFF0AEBEDFF056A58D759
:203680000750065C01E054D7056A07500601095CCE6F000E0A58CF6FCE2B000ECF2300EB64
:2036A000E9FF01EBEAFFCEC6EEFFCFC6EDFF40D700EBE9FF01EBEAFF09EBEEFF0AEBEDFFCA
:2036C000055002E1010E01D0000E4DE9E7CFD9FF1200D9CFE6FFE1CFD9FF86E943E8066ACF
:2036E00003EBE9FF04EBEAFF2C0EE926000EEA22EECFCEF6EECFCFF6EECFD0F6EFCFD1F6AE
:2037000003EBE9FF04EBEAFF300EE926000EEA22CEC6EEFFCFC6EEFFD0C6EEFFD1C6EEFF8A
:20372000010EE66E01EBE6FF02EBE6FF03EBE6FF04EBE6FFA0EC17F045E9F350076EF4501F
:20374000086E0750081002E11B0E2ED10B0EE66EE66A03EBE9FF04EBEAFF1B0EE926000EC8
:20376000EA22E9CFCEF6EACFCFF6E9CFE6FFEACFE6FF07EBE9FF08EBEAFFE9CFD0F6EACF1B
:20378000D1F6E9CFE6FFEACFE6FF7CECD7F046E9120E005C0AE107EBE9FF08EBEAFF0B0E93
:2037A000E926000EEA22100E09D007EBE9FF08EBEAFF0B0EE926000EEA22200EEF6E07EB74
:2037C000E9FF08EBEAFF0C0EE926000EEA22EF6A07EBE9FF08EBEAFF140EEB6A150EEB6AE4
:2037E00007EBE9FF08EBEAFF1A0EEB6A1B0EEB6A07EBE9FF08EBEAFF1C0EE926000EEA220F
:20380000EE6AEE6AEE6AEE6A07EBE9FF08EBEAFF0D0EE926000EEA2200C1EFFF07EBE9FFC5
:2038200008EBEAFF0E0EE926000EEA2201C1EEFF02C1EDFF07EBE9FF08EBEAFF100EE92626
:20384000000EEA2203C1EEFF04C1EDFF07EBE9FF08EBEAFF120EE926000EEA2205C1EEFF3A
:2038600006C1EDFF07EBE9FF08EBEAFF160EE926000EEA2207C1EEFF08C1EDFF07EBE9FF4E
:2038800008EBEAFF180EE926000EEA2209C1EEFF0AC1EDFF07EBE9FF08EBEAFF1C0EE926A0
:2038A000000EEA22EECFCEF6EECFCFF6EECFD0F6EFCFD1F603EBE9FF04EBEAFF120EE92606
:2038C000000EEA22CEC6EEFFCFC6EEFFD0C6EEFFD1C6EEFF07EBE9FF08EBEAFF0E0EE926E3
:2038E000000EEA22EECFCEF6EFCFCFF603EBE9FF04EBEAFF170EE926000EEA22CEC6EEFF2D
:20390000CFC6EDFF07EBE9FF08EBEAFF100EE926000EEA22EECFCEF6EFCFCFF603EBE9FF4F
:2039200004EBEAFF190EE926000EEA22CEC6EEFFCFC6EDFF07EBE9FF08EBEAFF0B0EE9267F
:20394000000EEA22EF50E66E03EBE9FF04EBEAFF2A0EE926000EEA22E552E750EE6EED6A8A
:2039600001EBE9FF02EBEAFFEECFCEF6EFCFCFF603EBE9FF04EBEAFF260EE926000EEA228E
:20398000CEC6EEFFCFC6EDFF01EBE6FF02EBE6FF03EBE6FF04EBE6FF04EC16F044E90108AF
:2039A00002E0090E066E065044E9E7CFD9FF1200D9CFE6FFE1CFD9FF88E942E8BC0E055C9C
:2039C000086E070E0658096E0844FE0B096E086A04500601D06FD16B050ED0C6CEF6D1C66F
:2039E000CFF6000A06E00601D890CE37CF37E804FBE10601CE510812CF51091203500812E8
:203A0000000E091208EB05F109EB06F108EB03F109EB04F108EB09F109EB0AF10250E8388B
:203A2000E840F80B086A096E0150D06FD16B050ED0C6CEF6D1C6CFF6000A06E00601D8907E
:203A4000CE37CF37E804FBE10601CE510812CF5109120050FE0BE8420812000E091208EB5F
:203A600001F109EB02F108EB07F109EB08F10050010B04E00101640E006F02D00101006B33
:203A80000F6B000EF36EF46A43E9E7CFD9FF1200D9CFE6FFE1CFD9FF84E94AE801EBE9FF8B
:203AA00002EBEAFFEE50046EED50056E01EBE9FF02EBEAFF060EE926000EEA22EE50066E37
:203AC000EE50076EEE50086EEF50096E01EBE6FF02EBE6FFA8D842E9FCC1CEF6FDC1CFF677
:203AE000FEC1D0F6FFC1D1F60601CE51066ECF51076ED051086ED151096E065007100810D6
:203B0000091002E1150E8BD004EBE9FF05EBEAFF220EE926000EEA22EF0406E1E66AF80EF2
:203B2000E66E0F0EE66E0FD004EBE9FF05EBEAFF220EE926000EEA22EF5002081DE1E66A41
:203B4000F80EE66EE668E66AE66A06EBE6FF07EBE6FF08EBE6FF09EBE6FF04EBE6FF05EBFB
:203B6000E6FF12EC3BF04BE9FCC1CEF6FDC1CFF6FEC1D0F6FFC1D1F601EBE9FF02EBEAFF49
:203B8000060EE926000EEA22EE500A6EEE500B6EEE500C6EEF500D6EE66A06EBE6FF07EBF1
:203BA000E6FF08EBE6FF09EBE6FF0AEBE6FF0BEBE6FF0CEBE6FF0DEBE6FF04EBE6FF05EB3D
:203BC000E6FF12EC3BF04BE9FCC1CEF6FDC1CFF6FEC1D0F6FFC1D1F601EBE9FF02EBEAFFE9
:203BE000060EE926000EEA2206EBEEFF07EBEEFF08EBEEFF09EBEFFF000410E106EBE6FF3E
:203C000007EBE6FF08EBE6FF09EBE6FF04EBE6FF05EBE6FF09EC29F046E901D0000E4BE923
:203C2000E7CFD9FF1200D9CFE6FFE1CFD9FF83E956E8056A066A076A086A00EBE9FF01EBA4
:203C4000EAFFEE50036EED50046E00EBE9FF01EBEAFF060EE926000EEA22EE50096EEE5045
:203C60000A6EEE500B6EEF500C6E03EBE9FF04EBEAFF220EE926000EEA22EF50020A07E023
:203C8000030A05E1F70E116E0F0E126E03D0F70E116E1268136A146A15681668176A186A46
:203CA000020E095C000E0A58000E0B58000E0C5805E2020E096E0A6A0B6A0C6A89EB0DF0FE
:203CC0008AEB0EF08BEB0FF08CEB10F009EBE6FF0AEBE6FF0BEBE6FF0CEBE6FF03EBE6FF48
:203CE00004EBE6FF06EC38F046E9FCC1CEF6FDC1CFF6FEC1D0F6FFC1D1F609500A100B1009
:203D00000C1001E17CD009EBE6FF0AEBE6FF0BEBE6FF0CEBE6FF03EBE6FF04EBE6FF06EC56
:203D200038F046E9FCC1CEF6FDC1CFF6FEC1D0F6FFC1D1F60601CE51056ECF51066ED051CE
:203D4000076ED151086E0550151809E10650161806E10750171803E1085018184CE005500C
:203D60000610071008104BE0D950090FE96EDACFEAFFEE2A000EEE22EE22EE2205501118D5
:203D800008E10650121805E10750131802E1085014181EE0020ECE6FCF6BD06BD16B03EB01
:203DA000E9FF04EBEAFF140EE926000EEA22EE50CE27EE50CF23EE50D023EE50D123CE5113
:203DC000095CCF510A58D0510B58D1510C5805E3020E096E0A6A0B6A0C6A09500D188DE138
:203DE0000A500E188AE10B500F1801E086D70C50101801E082D7096A0A6A0B6A0C6A09EB94
:203E0000FCF10AEBFDF10BEBFEF10CEBFFF157E9E7CFD9FF1200D9CFE6FFE1CFD9FF83E9A5
:203E200048E8480E076E086A01010F6B00EBE9FF01EBEAFF260EE926000EEA22EE50036EE5
:203E4000ED50046E00EBE9FF01EBEAFF160EE926000EEA22EF50010B01E1E5D00301FD518A
:203E60000AE073EC2DF0000906E00101090E0F6FF368F4680FD1010EE66EE66AE66AE66A6C
:203E8000E66AE66AE66AE66AE66A00EBE9FF01EBEAFFEECFE6FFEECFE6FF12EC3BF04BE949
:203EA000FCC1CEF6FDC1CFF6FEC1D0F6FFC1D1F60301F26BF36BF46BF56B00EBE9FF01EBB5
:203EC000EAFF060EE926000EEA22EECFE6FFEECFE6FFEECFE6FFEECFE6FF00EBE9FF01EB75
:203EE000EAFFEECFE6FFEECFE6FF06EC38F046E9FCC1CEF6FDC1CFF6FEC1D0F6FFC1D1F63C
:203F0000D950030FE66EDACFE6FF00EBE6FF01EBE6FF7FDA44E9F350096EF4500A6E09508E
:203F20000A1006E101011B0E0F6F07680868AED009EBE9FF0AEBEAFF160EE926000EEA2273
:203F400007C1EEFF08C1EDFF09EBE9FF0AEBEAFF180EE926000EEA2209C1EEFF0AC1EDFF80
:203F600000EBE9FF01EBEAFF120EE926000EEA22EECFCEF6EECFCFF6EECFD0F6EFCFD1F645
:203F800009EBE9FF0AEBEAFF1C0EE926000EEA22CEC6EEFFCFC6EEFFD0C6EEFFD1C6EEFF0A
:203FA00000EBE9FF01EBEAFF2A0EE926000EEA22EF50E66E09EBE9FF0AEBEAFF0B0EE92683
:203FC000000EEA22E552E750EF6ED950030FE66EDACFE6FF00EBE6FF01EBE6FF04EC16F048
:203FE00044E9000912E0D950030FE66EDACFE6FF00EBE6FF01EBE6FF0CDA44E9F350096E0E
:20400000F4500A6E076A086A05D00101090E0F6F0768086800EBE9FF01EBEAFF160EE926DB
:20402000000EEA22EF90056A066A030E055C000E065825E205EBCEF606EBCFF60601340E70
:20404000CF03F3CFCFF6CE03F3CFCEF6F450CF27600ECE27000ECF23CE5100180CE1CF51CF
:20406000011809E1FC0E0524E96E000E0620EA6E010EEF6E04D0052A000E0622D6D7480E7F
:20408000071804E1085002E1076A086A07EBF3FF08EBF4FF49E9E7CFD9FF1200D9CFE6FFD5
:2040A000E1CFD9FF85E947E80B6A00EBE9FF01EBEAFFEECFCEF6EFCFCFF60601CE510F0B7A
:2040C0002AE100EBE9FF01EBEAFFEE50ED1023E002EBE9FF03EBEAFF2C0EE926000EEA22E0
:2040E000EECFCEF6EECFCFF6EECFD0F6EFCFD1F602EBE9FF03EBEAFF300EE926000EEA22A2
:20410000CEC6EEFFCFC6EEFFD0C6EEFFD1C6EEFF010EE66E01D0E66A00EBE6FF01EBE6FF70
:2041200002EBE6FF03EBE6FFA0EC17F045E9F350056EF450066E0550061002E1020E0ED06F
:2041400005EBE9FF06EBEAFFEF50086EE50E085C02E1010E03D0085003E1020E0A6E54D1F3
:2041600005EBE9FF06EBEAFF0B0EE926000EEA22EF50086E076A080E075C31E205EBE9FFC1
:2041800006EBEAFFE9CFCEF6EACFCFF607500601EA6AE924E96ECF51EA22EF50096E0950FA
:2041A000E66EE66A48ECDDF042E9F350096E02EBE9FF03EBEAFF1B0EE926000EEA22E9CFBF
:2041C000CEF6EACFCFF60B500B2A0601EA6AE924E96ECF51EA2209EBEFFF072ACCD705EB7C
:2041E000E9FF06EBEAFF0B0EE926000EEA22EF50086E05EBE9FF06EBEAFF080EE926000E21
:20420000EA22EF50096E076A030E075C35E205EBE9FF06EBEAFF080EE926000EEA22E9CF37
:20422000CEF6EACFCFF607500601EA6AE924E96ECF51EA22EF50096E0950E66EE66A48EC13
:20424000DDF042E9F350096E02EBE9FF03EBEAFF1B0EE926000EEA22E9CFCEF6EACFCFF6B4
:204260000B500B2A0601EA6AE924E96ECF51EA2209EBEFFF072AC8D700EBE9FF01EBEAFF69
:20428000EECFCEF6EFCFCFF602EBE9FF03EBEAFF260EE926000EEA22CEC6EEFFCFC6EDFF0F
:2042A00005EBE9FF06EBEAFFEF50086EE50E085C03E1010E0A6E01D00A6A05EBE9FF06EBC7
:2042C000EAFF1C0EE926000EEA22EECFCEF6EECFCFF6EECFD0F6EFCFD1F602EBE9FF03EBD4
:2042E000EAFF120EE926000EEA22CEC6EEFFCFC6EEFFD0C6EEFFD1C6EEFF05EBE6FF06EBBC
:20430000E6FF9CEC15F042E9FCC1CEF6FDC1CFF6FEC1D0F6FFC1D1F602EBE9FF03EBEAFF44
:20432000020EE926000EEA22FCC1EEFFCFC6EEFFD0C6EEFFD1C6EEFF05EBE9FF06EBEAFF5F
:204340000B0EE926000EEA22EF50086E0850E66E02EBE9FF03EBEAFF2A0EE926000EEA22AD
:20436000E552E750EE6EED6A08A81ED005EBE9FF06EBEAFF0E0EE926000EEA22EECFCEF606
:20438000EFCFCFF602EBE9FF03EBEAFF170EE926000EEA22CEC6EEFFCFC6EDFF05EBE9FFC6
:2043A00006EBEAFF100E1DD005EBE9FF06EBEAFF160EE926000EEA22EECFCEF6EFCFCFF615
:2043C00002EBE9FF03EBEAFF170EE926000EEA22CEC6EEFFCFC6EDFF05EBE9FF06EBEAFF2F
:2043E000180EE926000EEA22EECFCEF6EFCFCFF602EBE9FF03EBEAFF190EE926000EEA226E
:20440000CEC6EEFFCFC6EDFF0A5048E9E7CFD9FF1200D9CFE6FFE1CFD9FF85E943E802EBD4
:20442000E9FF03EBEAFF2C0EE926000EEA22EECFCEF6EECFCFF6EECFD0F6EFCFD1F602EB62
:20444000E9FF03EBEAFF300EE926000EEA22CEC6EEFFCFC6EEFFD0C6EEFFD1C6EEFF010E1D
:20446000E66E00EBE6FF01EBE6FF02EBE6FF03EBE6FFA0EC17F045E9F350056EF450066E73
:20448000055006103AE005EBE9FF06EBEAFFEF50076E075002E1056A066A0550061031E09C
:2044A000E50E075C03E1056A066A2BD005EBE9FF06EBEAFF0B0EE926000EEA22EF50076E40
:2044C0000F0E075C1EE100EBE9FF01EBEAFFEE2A000EEF22E66A00EBE6FF01EBE6FF02EBA0
:2044E000E6FF03EBE6FFA0EC17F045E9F350056EF450066E05500610D9E1000EF36EF46AE3
:2045000004D005EBF3FF06EBF4FF44E9E7CFD9FF1200D9CFE6FFE1CFD9FF86E94CE8096A09
:204520000A6A0B6A0C6A0D6A010E116E03EBE9FF04EBEAFFEE500E6EED500F6E010E106E68
:2045400001010F6F10501006000901E18CD003EBE9FF04EBEAFF2C0EE926000EEA22EECF50
:20456000CEF6EECFCFF6EECFD0F6EFCFD1F603EBE9FF04EBEAFF300EE926000EEA22CEC644
:20458000EEFFCFC6EEFFD0C6EEFFD1C6EEFF010EE66E01EBE6FF02EBE6FF03EBE6FF04EBDD
:2045A000E6FFA0EC17F045E9F350066EF450076E0650071002E11B0E7FD006EBE9FF07EB52
:2045C000EAFFEF50086E0650071005E0085003E0E50E085C02E10B0E14D006EBE9FF07EBAE
:2045E000EAFFE50EEF6E01EBE6FF02EBE6FF03EBE6FF04EBE6FF04EC16F044E9000903E128
:20460000010E096E30D0115019E006EBE6FF07EBE6FF9CEC15F042E9FCC1CEF6FDC1CFF651
:20462000FEC1D0F6FFC1D1F60601CE510A6ECF510B6ED0510C6ED1510D6E116A01EBE9FFB0
:2046400002EBEAFFEECFCEF6EFCFCFF60601CE07000ECF5B01EBE9FF02EBEAFFCEC6EEFF41
:20466000CFC6EDFF6FD7095026E10A5001010B1908E10B500C1905E10C500D1902E10D5082
:204680000E1917E0005015E00EEBE6FF0FEBE6FF0AEBE6FF0BEBE6FF0CEBE6FF0DEBE6FF8C
:2046A000CDEC16F046E9000902E0000E01D0010E096E09EB0FF109504DE9E7CFD9FF120099
:2046C000D9CFE6FFE1CFD9FF85E948E8056A066A076A086A030ED89008BE03D0075C000EE2
:2046E000085825E2FC0E0724E96E000E0820EA6EEF5019E0FC0E0724E96E000E0820EA6EE7
:20470000EF6A340EE66EE66A07EBE6FF08EBE6FF92ECD5F0FE0EE350600F056E41E9000E0F
:20472000E520066E04D0072A000E0822D3D70550061003E10101200E18D0E66A05EBE6FF8D
:2047400006EBE6FF02EBE6FF03EBE6FFCEEC32F045E900090FE1FC0E0724E96E000E082019
:20476000EA6E010EEF6E0101120E0F6F000EF36EF46ACED200EBE9FF01EBEAFFEF50096E0A
:2047800005EBE9FF06EBEAFF7C0EEE6E010EED6E05EBE9FF06EBEAFF020EE926000EEA222C
:2047A000EE6AEE6AEE6AEE6A05EBE9FF06EBEAFF060EE926000EEA22EE6AEE6AEE6AEE6A4A
:2047C00005EBE9FF06EBEAFF260EEB6A270EEB6A05EBE9FF06EBEAFF2A0EE926000EEA2201
:2047E000200EEE6EED6A05EBE9FF06EBEAFF2C0EE926000EEA220BC1EEFF0CC1EEFF0DC182
:20480000EEFF0EC1EEFF05EBE9FF06EBEAFF300EE926000EEA220BC1EEFF0CC1EEFF0DC195
:20482000EEFF0EC1EEFF05EBE6FF06EBE6FF480EE66E010EE66E0BEC28F044E9E66A010E7C
:20484000E66E480EE66E010EE66E05EBE6FF06EBE6FF3DEC0CF046E9000901E0C1D1095023
:20486000520A01E17ED1200A01E17BD1330A01E17CD0200A01E179D0160A07E0200A05E07D
:2048800001011F0E0F6F0C6823D205EBE9FF06EBEAFF260EE926000EEA22EE500A6EED5000
:2048A0000B6E010EE66ED9500A0FE66EDACFE6FF05EBE6FF06EBE6FF2CDE45E90C6E0C503F
:2048C00001E006D2010EE66EE66AD9500A0FE66EDACFE6FF05EBE6FF06EBE6FFB2EC19F0F6
:2048E00046E90C6E0C5001E0F3D1770EE66ED9500A0FE66EDACFE6FF05EBE6FF06EBE6FF66
:204900009EEC0EF045E90C6E05EBE9FF06EBEAFF2A0EE926000EEA22EECFCEF6EFCFCFF650
:204920000601CE51100B04E001011F0E0F6F0C680C5001E0CDD1020EE66EE66AE66AE66A02
:20494000E66AE66A05EBE6FF06EBE6FFF5EC34F048E9F3500C6E0028E96E000E0120EA6E13
:20496000EF502B0801E0B4D1A7D105EBE9FF06EBEAFF120EE926000EEA22EECFCEF6EECFAE
:20498000CFF6EECFD0F6EFCFD1F60601CE51CF11D011D11171E005EBE9FF06EBEAFF260E4A
:2049A000E926000EEA22EE500A6EED500B6E770EE66ED9500A0FE66EDACFE6FF05EBE6FF90
:2049C00006EBE6FF9EEC0EF045E90C6E05EBE9FF06EBEAFF2A0EE926000EEA22EECFCEF63D
:2049E000EFCFCFF60601CE51100B04E001011F0E0F6F0C680C5001E06BD1020EE66EE66AC1
:204A0000E66AE66AE66AE66A05EBE6FF06EBE6FFF5EC34F048E9F3500C6E0C5004E0010176
:204A20001A0E0F6F1FD005EBE9FF06EBEAFF060EE926000EEA22EECFE6FFEECFE6FFEECFF1
:204A4000E6FFEECFE6FF7C0EE66E010EE66E06EC38F046E9FCC1CEF6FDC1CFF6FEC1D0F6BC
:204A6000FFC1D1F60028E96E000E0120EA6EEF502B0801E02DD120D105EBE9FF06EBEAFFB5
:204A8000260EE926000EEA22EE500A6EED500B6E010EE66ED9500A0FE66EDACFE6FF05EBD6
:204AA000E6FF06EBE6FF35DD45E90C6E0C5001E00FD1010EE66EE66AD9500A0FE66EDACF72
:204AC000E6FF05EBE6FF06EBE6FFB2EC19F046E90C6E0C5001E0FCD0770EE66ED9500A0FD2
:204AE000E66EDACFE6FF05EBE6FF06EBE6FF9EEC0EF045E90C6E05EBE9FF06EBEAFF2A0E0F
:204B0000E926000EEA22EECFCEF6EFCFCFF60601CE51100B04E001011F0E0F6F0C680C50C6
:204B200001E0D6D0020EE66EE66AE66AE66AE66AE66A05EBE6FF06EBE6FFF5EC34F048E919
:204B4000F3500C6E0C5003E001011A0E0F6F0028E96E000E0120EA6EEF502B0801E0B8D0D0
:204B6000ABD005EBE9FF06EBEAFF260EE926000EEA22EE500A6EED500B6E720EE66ED95042
:204B80000A0FE66EDACFE6FF05EBE6FF06EBE6FF9EEC0EF045E90C6E0028E96E000E012091
:204BA000EA6EEF502B0801E093D005EBE9FF06EBEAFF2A0EE926000EEA22EECFCEF6EFCF95
:204BC000CFF60601CE51100B01E082D005EBE9FF06EBEAFF160EE926000EEA22EF8078D0E6
:204BE000480EE66E010EE66E05EBE6FF06EBE6FF12DA44E9770E095C09E0570E095C06E061
:204C0000610E095C03E0410E095C60E10A6A0B6A010EE66EE66AD9500A0FE66EDACFE6FF28
:204C200005EBE6FF06EBE6FFB2EC19F046E90C6E0C504EE1770EE66ED9500A0FE66EDACFD6
:204C4000E6FF05EBE6FF06EBE6FF9EEC0EF045E90C6E05EBE9FF06EBEAFF2A0EE926000E8D
:204C6000EA22EECFCEF6EFCFCFF60601CE51100B04E001011F0E0F6F0C680C5029E1020E68
:204C8000E66EE66AE66AE66AE66AE66A05EBE6FF06EBE6FFF5EC34F048E9F3500C6E0C5036
:204CA00003E001011A0E0F6F0028E96E000E0120EA6EEF502B080CE105EBE9FF06EBEAFF52
:204CC000160EE926000EEA22EF8202D00B0E0C6E86EC74F0000909E005EBE9FF06EBEAFF37
:204CE000160EE926000EEA22EF900C500BE0FC0E0724E96E000E0820EA6E010EEF6E056AAC
:204D0000066A02D001010F6B05EBF3FF06EBF4FF49E9E7CFD9FF1200D9CFE6FFE1CFD9FF28
:204D200083E942E8140E036E010E046E01010F6B86EC74F0000903E00101180EB5D0E66A8E
:204D400003EBE6FF04EBE6FF00EBE6FF01EBE6FFCEEC32F045E9000903E10101120EA4D07E
:204D600003EBE9FF04EBEAFF7C0EEE6E010EED6E03EBE9FF04EBEAFF020EE926000EEA224E
:204D8000EE6AEE6AEE6AEE6A03EBE9FF04EBEAFF060EE926000EEA22EE6AEE6AEE6AEE6A68
:204DA00003EBE9FF04EBEAFF260EEB6A270EEB6A03EBE9FF04EBEAFF2A0EE926000EEA2223
:204DC000200EEE6EED6A03EBE9FF04EBEAFF2C0EE926000EEA220BC1EEFF0CC1EEFF0DC1A0
:204DE000EEFF0EC1EEFF03EBE9FF04EBEAFF300EE926000EEA220BC1EEFF0CC1EEFF0DC1B4
:204E0000EEFF0EC1EEFF03EBE6FF04EBE6FF480EE66E010EE66EFFD844E9E66A010EE66E7E
:204E2000480EE66E010EE66E03EBE6FF04EBE6FF3DEC0CF046E9000903E001010B0E34D05F
:204E400003EBE9FF04EBEAFF2A0EE926000EEA22EECFCEF6EFCFCFF60601CE51100B03E01B
:204E60000101130E21D0010EE66E03EBE9FF04EBEAFF260EE926000EEA22E9CFCEF6EACF7B
:204E8000CFF6E9CFE6FFEACFE6FF03EBE6FF04EBE6FF89EC22F045E9000904E1000EF36E59
:204EA000F46A05D00101010E0F6FF368F46843E9E7CFD9FF1200D9CFE6FFE1CFD9FF83E92C
:204EC00042E800EBE9FF01EBEAFF160EE926000EEA22EF50010B04E101011D0E0F6F45D0C3
:204EE00003EBE6FF04EBE6FF00EBE9FF01EBEAFF060EE926000EEA22EECFE6FFEECFE6FFE2
:204F0000EECFE6FFEECFE6FFCDEC16F046E9000903E10101010E0F6F00EBE9FF01EBEAFF3B
:204F20000E0EE926000EEA22EECFCEF6EECFCFF6EECFD0F6EFCFD1F600EBE9FF01EBEAFF79
:204F4000120EE926000EEA22CEC6EEFFCFC6EEFFD0C6EEFFD1C6EEFF00EBE9FF01EBEAFF56
:204F6000160EE926000EEA22EF8443E9E7CFD9FF1200D9CFE6FFE1CFD9FF83E90301FD51D2
:204F800002E073EC2DF000EBE9FF01EBEAFF0E0EE926000EEA22EE6AEE6AEE6AEE6A00EB7B
:204FA000E9FF01EBEAFF0C0EEB6A0D0EEB6A00EBE9FF01EBEAFF0A0EEB6A0B0EEB6A00EBE7
:204FC000E9FF01EBEAFF020EE926000EEA22EECFCEF6EECFCFF6EECFD0F6EFCFD1F600EBE5
:204FE000E9FF01EBEAFF060EE926000EEA22CEC6EEFFCFC6EEFFD0C6EEFFD1C6EEFF0301A9
:20500000F76BF86B41E9E7CFD9FF120001010F51F36EF46A1200D9CFE6FFE1CFD9FF85E94B
:2050200048E882EB07F083EB08F080EB09F081EB0AF0340E056E066A0B6A0C6A06340C5006
:20504000061804E605500B5C06500C5815E209500B24E96E0A500C20EA6EEF50E66E075034
:205060000B24E96E08500C20EA6EE552E750EF6E0B2A000E0C22E2D749E9E7CFD9FF120007
:20508000D9CFE6FFE1CFD9FF85E943E8076A02EBE9FF03EBEAFFEE50056EED50066E02EBF6
:2050A000E6FF03EBE6FF13EC1EF042E9FCC1CEF6FDC1CFF6FEC1D0F6FFC1D1F600EBE9FF1D
:2050C00001EBEAFFFCC1EEFFCFC6EEFFD0C6EEFFD1C6EEFF00EBE9FF01EBEAFFEECFCEF69F
:2050E000EECFCFF6EECFD0F6EFCFD1F60601CE51CF11D011D11102E1150E85D005EBE9FF2A
:2051000006EBEAFF220EE926000EEA22EF042EE1E66AF80EE66E0F0EE66EE66AE66A00EBB4
:20512000E9FF01EBEAFFEECFE6FFEECFE6FFEECFE6FFEECFE6FF05EBE6FF06EBE6FF12EC81
:205140003BF04BE9FCC1CEF6FDC1CFF6FEC1D0F6FFC1D1F6E8680601CE1941E1E868CF1948
:205160003EE1D0513CE1D1513AE137D005EBE9FF06EBEAFF220EE926000EEA22EF5002083A
:205180002EE1E66AF80EE66EE668E66AE66A00EBE9FF01EBEAFFEECFE6FFEECFE6FFEECFBF
:2051A000E6FFEECFE6FF05EBE6FF06EBE6FF12EC3BF04BE9FCC1CEF6FDC1CFF6FEC1D0F6D7
:2051C000FFC1D1F6E8680601CE1909E1E868CF1906E1D05104E1D15102E1090E076E075013
:2051E00013E100EBE9FF01EBEAFFEECFE6FFEECFE6FFEECFE6FFEECFE6FF05EBE6FF06EBC5
:20520000E6FF07D846E9076E075044E9E7CFD9FF1200D9CFE6FFE1CFD9FF87E946E80C6AD9
:2052200000EBE6FF01EBE6FF02EBE6FF03EBE6FF04EBE6FF05EBE6FF7AD846E9FCC1CEF67D
:20524000FDC1CFF6FEC1D0F6FFC1D1F60601CE51086ECF51096ED0510A6ED1510B6E030154
:20526000FD5106E073EC2DF0000902E0090E5BD00301F76BF86BFF511BE104EBE9FF05EB75
:20528000EAFF180EE926000EEA22EECFE6FFEECFE6FFE66A04EBE9FF05EBEAFFEECFE6FFF0
:2052A000EECFE6FF02ECD7F045E90301010EFF6F076A04EBE9FF05EBEAFF210EE926000E7B
:2052C000EA22EF50075C2EE20C502CE1E66A04EBE9FF05EBEAFFEECFE6FFEECFE6FFD9503A
:2052E000080FE96EDACFEAFFEFCFCEF6EE2A000EEFCFCFF6EE22EFCFD0F6EE22EFCFD1F65A
:20530000EF22CEC6E6FFCFC6E6FFD0C6E6FFD1C6E6FF50EC74F047E9010802E0090E0C6E46
:20532000072AC7D70C5047E9E7CFD9FF1200D9CFE6FFE1CFD9FF87E944E804EBE9FF05EBFA
:20534000EAFF220EE926000EEA22EF50010A01E0030A005001100210031009E0010E00183D
:205360001FE101501DE102501BE1035019E100EBCEF601EBCFF602EBD0F603EBD1F604EB8C
:20538000E9FF05EBEAFF0A0EE926000EEA22EE500601CE27EE50CF23EE50D023EE5047D01B
:2053A00004EBE9FF05EBEAFF210EE926000EEA22EFCFE6FFE66AE66AE66A00EBD2F601EBB3
:2053C000D3F602EBD4F603EBD5F6020E0601D25F000ED35BD45BD55BD2C6E6FFD3C6E6FFB6
:2053E000D4C6E6FFD5C6E6FF26ECD6F0E552E5CFD1F6E5CFD0F6E5CFCFF6E7CFCEF604EBC8
:20540000E9FF05EBEAFF0E0EE926000EEA22EECFD6F6EECFD7F6EECFD8F6EFCFD9F6060154
:20542000D651CE27D751CF23D851D023D951D123CE51076ECF51086ED051096ED1510A6EA0
:2054400007EBFCF108EBFDF109EBFEF10AEBFFF145E9E7CFD9FF1200D9CFE6FFE1CFD9FFE1
:2054600084E944E801010F6BD80E00144EE101EBE9FF02EBEAFF260EE926000EEA22EE50A9
:20548000046EED50056E01EBE9FF02EBEAFF2C0EE926000EEA22EECFCEF6EECFCFF6EECF1D
:2054A000D0F6EFCFD1F601EBE9FF02EBEAFF300EE926000EEA22CEC6EEFFCFC6EEFFD0C6F7
:2054C000EEFFD1C6EEFFD950040FE66EDACFE6FF01EBE6FF02EBE6FF09EC22F044E9F35023
:2054E000066EF450076E0650071003E101011B0E3FD006EBE9FF07EBEAFF0B0EE926000E0A
:20550000EA22EF50080B03E001011F0E31D001EBE9FF02EBEAFF2A0EE926000EEA22EECF52
:20552000CEF6EFCFCFF60601CE51100B03E0100E001001D00050E66E01EBE9FF02EBEAFFB3
:205540002A0EE926000EEA22E552E750EE6EED6AD950040FE66EDACFE6FF01EBE6FF02EBED
:20556000E6FF04EC16F044E9000906E10101090E0F6FF368F46803D0000EF36EF46A45E917
:20558000E7CFD9FF1200D9CFE6FFE1CFD9FF89E95AE802EBE6FF03EBE6FF04EBE6FF05EB39
:2055A000E6FF92ECD5F0E552E5CFCFF6E7CFCEF60601CE51096ECF510A6E0B6A0C6A86EB08
:2055C0000DF087EB0EF0116A206A216A00EBE9FF01EBEAFF160EE926000EEA22EF50010B8E
:2055E00005E101011D0E0F6F090E0DD009500A100B100C1001E1D6D186EC74F0000905E02F
:205600000101180E0F6F116ECDD10301FF6B00EBE9FF01EBEAFFEE500F6EED50106E00EB50
:20562000E9FF01EBEAFF0C0EE926000EEA22EE50126EED50136E00EBE9FF01EBEAFF0E0E2A
:20564000E926000EEA22EE50186EEE50196EEE501A6EEF501B6E00EBE9FF01EBEAFF060E4E
:20566000E926000EEA22EECFE6FFEECFE6FFEECFE6FFEECFE6FF0FEBE6FF10EBE6FF57DE85
:2056800046E9FCC1CEF6FDC1CFF6FEC1D0F6FFC1D1F60601CE51146ECF51156ED051166EDB
:2056A000D151176E00EBE9FF01EBEAFF0A0EE926000EEA22EECFCEF6EFCFCFF6D06BD16BDF
:2056C000D950140FE96EDACFEAFFCE51EE26CF51EE22D051EE22D151EE2203010050F7196B
:2056E00002E10150F8190AE0FD5104E0FCD9000901E090D000EBF7F301EBF8F30301F95130
:20570000141808E1FA51151805E1FB51161802E1FC5117182AE0FD5104E0E5D9000901E059
:2057200079D00301FF6B0FEBE9FF10EBEAFFEECFE6FFEECFE6FF14EBE6FF15EBE6FF16EBDE
:20574000E6FF17EBE6FF9BEC70F046E9000905E101011B0E0F6F080E116E14EBF9F315EB4F
:20576000FAF316EBFBF317EBFCF300EBE9FF01EBEAFF120EE926000EEA22EE501C6EEE5065
:205780001D6EEE501E6EEF501F6E115001E068D109500A100B100C1001E162D118501C1812
:2057A00012E119501D180FE11A501E180CE11B501F1809E100EBE9FF01EBEAFF160EE92674
:2057C000000EEA22EF8412EBCEF613EBCFF60601D06BD16B0FEBE9FF10EBEAFF180EE9263F
:2057E000000EEA22CE51EE1801E0E8D0CF51EE1801E0E4D0D051EE1801E0E0D0D151EE1836
:2058000001E0DCD0010E226E0301FD5106E06BD9000903E00101090E5AD0126A136A00EBCD
:20582000E9FF01EBEAFF0A0EE926000EEA22EE2AEF2200EBE9FF01EBEAFF0A0EE926000E64
:20584000EA22EECFCEF6EFCFCFF60FEBE9FF10EBEAFF210EE926000EEA22EF500601D06F95
:20586000D16BD051CE192EE1D151CF192BE100EBE9FF01EBEAFF0A0EEB6A0B0EEB6A00EB51
:20588000E9FF01EBEAFF160EE926000EEA22EF50040B0BE0E66A00EBE6FF01EBE6FF48ECA0
:2058A0001DF043E9116E226A0DD0010EE66EE66AE66AE66A00EBE6FF01EBE6FF1BEC10F0CC
:2058C00046E9116E150E115C04E10101150E0F6F69D0115073E100EBE9FF01EBEAFF060E58
:2058E000E926000EEA22EECFE6FFEECFE6FFEECFE6FFEECFE6FF0FEBE6FF10EBE6FF17DD44
:2059000046E9FCC1CEF6FDC1CFF6FEC1D0F6FFC1D1F60601CE51146ECF51156ED051166E58
:20592000D151176E00EBE9FF01EBEAFF0A0EE926000EEA22EECFCEF6EFCFCFF6D06BD16B5C
:20594000D950140FE96EDACFEAFFCE51EE26CF51EE22D051EE22D151EE2200EBF7F301EB8B
:20596000F8F3225023E00FEBE9FF10EBEAFFEECFE6FFEECFE6FF14EBE6FF15EBE6FF16EBF3
:20598000E6FF17EBE6FF9BEC70F046E900090EE101011B0E0F6F080E116E0301F969FA6926
:2059A000FB69FC69000EF36EF46A99D014EBF9F315EBFAF316EBFBF317EBFCF3115001E0EE
:2059C000E4D60DEBE9FF0EEBEAFFEF50E66E12EBCEF613EBCFF6122A000E13220FEBE9FFD3
:2059E00010EBEAFF0601CE51EE24E76ECF51EE20EA6EE7CFE9FFE552E750EF6E0D2A000E02
:205A00000E22D950180FE96EDACFEAFFEE2A000EEE22EE22EE22D950090FE96EDACFEAFF9D
:205A2000EE06000EEE5AEE5AEE5A202A212200EBE9FF01EBEAFF160EE926000EEA22EF50CB
:205A4000040B0AE0D9501C0FE96EDACFEAFFEE2A000EEE22EE22EE220301010EFD6F95D6D0
:205A600000EBE9FF01EBEAFF0C0EE926000EEA2212EBEEFF13EBEDFF00EBE9FF01EBEAFFBF
:205A80000E0EE926000EEA2218EBEEFF19EBEEFF1AEBEEFF1BEBEFFF00EBE9FF01EBEAFF52
:205AA000120EE926000EEA221CEBEEFF1DEBEEFF1EEBEEFF1FEBEFFF04EBE6FF05EBE6FF1D
:205AC00020EBE6FF21EBE6FFB2ECD4F0E552E5CFCFF6E7CFCEF6CEC6F3FFCFC6F4FF5BE907
:205AE000E7CFD9FF1200D9CFE6FFE1CFD9FF81E948E80301F751076EF851086E07EBE9FFFD
:205B000008EBEAFFEE50056EED50066E07EBE9FF08EBEAFF060EE926000EEA22EECFE6FFB2
:205B2000EECFE6FFEECFE6FFEECFE6FF05EBE6FF06EBE6FF97EC29F046E9FCC1CEF6FDC1CA
:205B4000CFF6FEC1D0F6FFC1D1F60601CE51016ECF51026ED051036ED151046E07EBE9FF4F
:205B600008EBEAFF0A0EE926000EEA22EECFCEF6EFCFCFF6D06BD16BD950010FE96EDACF54
:205B8000EAFFCE51EE26CF51EE22D051EE22D151EE22E66A05EBE9FF06EBEAFFEECFE6FFB2
:205BA000EECFE6FF01EBE6FF02EBE6FF03EBE6FF04EBE6FF50EC74F047E9000902E1090E26
:205BC00003D00301FD6B000E49E9E7CFD9FF1200D9CFE6FFE1CFD9FF83E901010F6B00EBBE
:205BE000E9FF01EBEAFF120EE926000EEA22EECFD0F6EECFD1F6EECFD2F6EFCFD3F600EBA1
:205C0000E9FF01EBEAFF0E0EE926000EEA22EE500601D01908E1EE50D11905E1EE50D21934
:205C200002E1EE50D31902E0000E01D0010ECE6FCF6B800B01E0CF69CEC6F3FFCFC6F4FF5E
:205C400041E9E7CFD9FF1200D9CFE6FFE1CFD9FF89E955E802EBE6FF03EBE6FF04EBE6FF3D
:205C600005EBE6FF92ECD5F0E552E5CFCFF6E7CFCEF60601CE51096ECF510A6E0B6A0C6AC2
:205C800086EB0DF087EB0EF01B6A1C6A1D6A01010F6B00EBE9FF01EBEAFFEE500F6EED5078
:205CA000106E00EBE9FF01EBEAFF0C0EE926000EEA22EE50196EED501A6E00EBE9FF01EB32
:205CC000EAFF0E0EE926000EEA22EE50116EEE50126EEE50136EEF50146E00EBE9FF01EBDC
:205CE000EAFF160EE926000EEA22EF50020B02E11E0E08D00301FD5107E0F5DE000904E042
:205D00000101090E0F6F85D003010050F71902E10150F81901E189D019EBCEF61AEBCFF621
:205D20000601D06BD16B0FEBE9FF10EBEAFF180EE926000EEA22CE51EE1808E1CF51EE189C
:205D400005E1D051EE1802E1D151EE186EE000EBF7F301EBF8F300EBE9FF01EBEAFF060E75
:205D6000E926000EEA22EECFE6FFEECFE6FFEECFE6FFEECFE6FF0FEBE6FF10EBE6FF97EC30
:205D800029F046E9FCC1CEF6FDC1CFF6FEC1D0F6FFC1D1F60601CE51156ECF51166ED0513D
:205DA000176ED151186E00EBE9FF01EBEAFF0A0EE926000EEA22EECFCEF6EFCFCFF6D06B8E
:205DC000D16BD950150FE96EDACFEAFFCE51EE26CF51EE22D051EE22D151EE220301FF6B1D
:205DE0000FEBE9FF10EBEAFFEECFE6FFEECFE6FF15EBE6FF16EBE6FF17EBE6FF18EBE6FFFF
:205E00009BEC70F046E9000908E10101080E0F6F1B6E000EF36EF46A59D115EBF9F316EB77
:205E2000FAF317EBFBF318EBFCF309500A100B100C1001E11CD100EBE9FF01EBEAFF120E52
:205E4000E926000EEA22EE5011180CE1EE50121809E1EE50131806E1EE50141803E10101D3
:205E60003D0EC3D019EBCEF61AEBCFF60601D06BD16B0FEBE9FF10EBEAFF180EE926000E2B
:205E8000EA22CE51EE1801E0BBD0CF51EE1801E0B7D0D051EE1801E0B3D0D151EE1801E043
:205EA000AFD0196A1A6A00EBE9FF01EBEAFF0A0EE926000EEA22EE2AEF2200EBE9FF01EB8B
:205EC000EAFF0A0EE926000EEA22EECFCEF6EFCFCFF60FEBE9FF10EBEAFF210EE926000E82
:205EE000EA22EF50D06FD16BD051CE191EE1D151CF191BE100EBE9FF01EBEAFF0A0EEB6ABA
:205F00000B0EEB6A010EE66EE66AE66AE66A00EBE6FF01EBE6FF1BEC10F046E91B6E1B50F5
:205F200004E001010F0E0F6FA2D000EBE9FF01EBEAFF060EE926000EEA22EECFE6FFEECF2A
:205F4000E6FFEECFE6FFEECFE6FF0FEBE6FF10EBE6FF97EC29F046E9FCC1CEF6FDC1CFF68A
:205F6000FEC1D0F6FFC1D1F60601CE51156ECF51166ED051176ED151186E00EBE9FF01EBBB
:205F8000EAFF0A0EE926000EEA22EECFCEF6EFCFCFF6D06BD16BD950150FE96EDACFEAFF26
:205FA000CE51EE26CF51EE22D051EE22D151EE2200EBF7F301EBF8F30301FF6B0FEBE9FF1F
:205FC00010EBEAFFEECFE6FFEECFE6FF15EBE6FF16EBE6FF17EBE6FF18EBE6FF9BEC70F018
:205FE00046E9000905E10101080E0F6F1B6E3FD015EBF9F316EBFAF317EBFBF318EBFCF399
:2060000019EBCEF61AEBCFF6192A000E1A220FEBE9FF10EBEAFF0601CE51EE24E76ECF51EE
:20602000EE20EA6EE7CFE9FFEF50E66E0DEBE9FF0EEBEAFFE552E750EF6E0D2A000E0E22C7
:20604000D950110FE96EDACFEAFFEE2A000EEE22EE22EE221C2A1D22D950090FE96EDACFF2
:20606000EAFFEE06000EEE5AEE5AEE5ADED600EBE9FF01EBEAFF0C0EE926000EEA2219EBBA
:20608000EEFF1AEBEDFF00EBE9FF01EBEAFF0E0EE926000EEA2211EBEEFF12EBEEFF13EB64
:2060A000EEFF14EBEFFF04EBE6FF05EBE6FF1CEBE6FF1DEBE6FFB2ECD4F0E552E5CFCFF672
:2060C000E7CFCEF6CEC6F3FFCFC6F4FF56E9E7CFD9FF1200D9CFE6FFE1CFD9FF87E950E89C
:2060E00000EBE9FF01EBEAFF160EE926000EEA22EF50020B03E101011E0E89D10301FD51A1
:2061000006E0F1DC000903E00101090E80D101010F6B00EBE9FF01EBEAFFEE50076EED5062
:20612000086E00EBE9FF01EBEAFF0C0EE926000EEA22EE50116EED50126E00EBE9FF01EBC5
:20614000EAFF0E0EE926000EEA22EE50096EEE500A6EEE500B6EEF500C6E03010050F719D2
:2061600002E10150F81901E182D011EBCEF612EBCFF60601D06BD16B07EBE9FF08EBEAFFF0
:20618000180EE926000EEA22CE51EE1808E1CF51EE1805E1D051EE1802E1D151EE1867E01D
:2061A00000EBF7F301EBF8F300EBE9FF01EBEAFF060EE926000EEA22EECFE6FFEECFE6FF0A
:2061C000EECFE6FFEECFE6FF07EBE6FF08EBE6FF97EC29F046E9FCC1CEF6FDC1CFF6FEC13E
:2061E000D0F6FFC1D1F60601CE510D6ECF510E6ED0510F6ED151106E00EBE9FF01EBEAFF2F
:206200000A0EE926000EEA22EECFCEF6EFCFCFF6D06BD16BD9500D0FE96EDACFEAFFCE5175
:20622000EE26CF51EE22D051EE22D151EE220301FF6B07EBE9FF08EBEAFFEECFE6FFEECF34
:20624000E6FF0DEBE6FF0EEBE6FF0FEBE6FF10EBE6FF9BEC70F046E9000901E1D6D00DEB40
:20626000F9F30EEBFAF30FEBFBF310EBFCF311EBD2F612EBD3F60601D46BD56B07EBE9FF90
:2062800008EBEAFF180EE926000EEA22D251EE5CCE6FD351EE58CF6FD451EE58D06FD551B1
:2062A000EE58D16FCE51136ECF51146ED051156ED151166E135014101510161002E0000E0A
:2062C00001D0010E000901E1BFD0116A126A00EBE9FF01EBEAFF0A0EE926000EEA22EE2A6C
:2062E000EF2200EBE9FF01EBEAFF0A0EE926000EEA22EECFCEF6EFCFCFF607EBE9FF08EBD3
:20630000EAFF210EE926000EEA22EF50D06FD16BD051CE191CE1D151CF1919E100EBE9FFA6
:2063200001EBEAFF0A0EEB6A0B0EEB6A010EE66EE66AE66AE66A00EBE6FF01EBE6FF1BECB2
:2063400010F046E9000903E001010F0E60D000EBE9FF01EBEAFF060EE926000EEA22EECF31
:20636000E6FFEECFE6FFEECFE6FFEECFE6FF07EBE6FF08EBE6FF97EC29F046E9FCC1CEF657
:20638000FDC1CFF6FEC1D0F6FFC1D1F60601CE510D6ECF510E6ED0510F6ED151106E00EB08
:2063A000E9FF01EBEAFF0A0EE926000EEA22EECFCEF6EFCFCFF6D06BD16BD9500D0FE96EC8
:2063C000DACFEAFFCE51EE26CF51EE22D051EE22D151EE2200EBF7F301EBF8F30301FF6B4B
:2063E00007EBE9FF08EBEAFFEECFE6FFEECFE6FF0DEBE6FF0EEBE6FF0FEBE6FF10EBE6FF29
:206400009BEC70F046E9000907E10101080E0F6F000EF36EF46ABED00DEBF9F30EEBFAF3BA
:206420000FEBFBF310EBFCF307EBE9FF08EBEAFF180EE926000EEA22EE50136EEE50146E06
:20644000EE50156EEF50166E02EBE6FF03EBE6FFE66AE66AFC0EE350135CFD0EE35014581D
:20646000FE0EE3501558FF0EE350165844E904E293EB02F094EB03F009EBD2F60AEBD3F653
:206480000BEBD4F60CEBD5F600EBE9FF01EBEAFF120EE926000EEA220601D251EE5CCE6FD8
:2064A000D351EE58CF6FD451EE58D06FD551EE58D16FCE51136ECF51146ED051156ED151D6
:2064C000166E02EBE6FF03EBE6FFE66AE66AFC0EE350D8801354FD0EE3501454FE0EE35012
:2064E0001554FF0EE350165444E902E2000E01D0010E000907E093EB02F094EB03F00101B6
:206500003D0E0F6F0601000E1124CE6F0A0E1220CF6F04EBE9FF05EBEAFFCEC6EEFFCFC6DD
:20652000EDFF11500224CE6F12500320CF6F00EBE9FF01EBEAFF0C0EE926000EEA22CEC669
:20654000EEFFCFC6EDFF02EBCEF603EBCFF6D06BD16BD950090FE96EDACFEAFFEE50CE2795
:20656000EE50CF23EE50D023EE50D12300EBE9FF01EBEAFF0E0EE926000EEA22CEC6EEFF1A
:20658000CFC6EEFFD0C6EEFFD1C6EEFF02EBF3FF03EBF4FF51E9E7CFD9FF1200D9CFE6FF4B
:2065A000E1CFD9FF86E96AE8136A146A156A0C0E0B6E0C6A03EBE6FF04EBE6FF49ECD7F06C
:2065C00042E9F3CFA6F1F4CFA7F10101F3500B5CF4500C5801E286D103EBE9FF04EBEAFFA0
:2065E000EF502E0801E17ED103EBE9FF04EBEAFFEF5001E177D1D950160FA46FDACFA5F13E
:206600000B6A0C6AA6510B5CA7510C5815E203500B24E96E04500C20EA6EEF50E66E0B503F
:20662000A425E96E0C50A521EA6EE552E750EF6E0B2A000E0C22E6D700EBE6FF5AD941E99A
:20664000086E070E085C01E14DD10101A651096EA7510A6E0804060E085C01E13ED1135093
:2066600001E03BD10F6A106A0A3410500A1804E609500F5C0A5010582EE20F50A425E96E7B
:206680001050A521EA6EEF502E080FE106010F50095CCE6F10500A58CF6FE83404E2CE51EE
:2066A0000408000ECF5501E21DD1103406E20F500808000E105401E215D101010F50A425CB
:2066C000E96E1050A521EA6EEF502E0804E00F2A000E1022C9D7135001E0FFD001EBE9FF8C
:2066E00002EBEAFF1B0EE926000EEA22E9CFCEF6EACFCFF60601E950066EEA50076E0B6AA0
:206700000C6A0B0ED8900CBE03D00B5C000E0C580CE206500B24E96E07500C20EA6E200E39
:20672000EF6E0B2A000E0C22ECD78FEB11F090EB12F00101A451146EA551156E0B6A0C6AF3
:206740000D6A0E6A080ED8900EBE03D00D5C000E0E5856E212340C50121804E611500B5C9A
:2067600012500C584DE214500B24E96E15500C20EA6EEF5041E014500B24E96E15500C2076
:20678000EA6EEF50E66E06500D24E96E07500E20EA6EE552E750EF6E06500D24E96E075053
:2067A0000E20EA6EEFCFCEF6610E0601E76ECE1902E7E73402D0E750CE5D1BE306500D2462
:2067C000E96E07500E20EA6EEFCFCFF67A0EE76ECF1902E7CF3502D0CF51E75C0AE3200E00
:2067E000CE6F06500D24E96E07500E20EA6ECE51EF5E0D2A000E0E220B2A000E0C22A2D7D6
:206800000A3412500A1804E60950115C0A50125864E2112A000E1222080E0F6E106A0B0E59
:20682000D89010BE03D00F5C000E105856E20A3412500A1804E60950115C0A5012584DE2D1
:2068400014501124E96E15501220EA6EEF5041E014501124E96E15501220EA6EEF50E66E87
:2068600006500F24E96E07501020EA6EE552E750EF6E06500F24E96E07501020EA6EEFCF11
:20688000CEF6610E0601E76ECE1902E7E73402D0E750CE5D1BE306500F24E96E07501020E5
:2068A000EA6EEFCFCFF67A0EE76ECF1902E7CF3502D0CF51E75C0AE3200ECE6F06500F2435
:2068C000E96E07501020EA6ECE51EF5E0F2A000E1022112A000E1222A2D7060E085C02E04D
:2068E000130402E1000E01D0010E6BE9E7CFD9FF1200D9CFE6FFE1CFD9FF82E945E8056AA0
:206900000101A6510C08000EA75503E2060E026E01D0026A036A046AA651035CA751045835
:206920005FE20350A425E96E0450A521EA6EEF50066E200E065C03E2050E065C1DE1220E66
:20694000065C1AE02F0E065C17E03A0E065C14E03C0E065C11E03E0E065C0EE05C0E065CA2
:206960000BE07C0E065C08E0005008E12A0E065C03E03F0E065C02E1070E33D0060E025C86
:206980002BE0200E065C17E02B0E065C14E02C0E065C11E03B0E065C0EE03D0E065C0BE018
:2069A0005B0E065C08E05D0E065C05E02E0E065C04E1050402E1060E0ED02E0E065C02E190
:2069C000010E056E020408E0610E065C05E306507A0802E3010E026E032A000E04229CD77E
:2069E000025046E9E7CFD9FF1200D9CFE6FFE1CFD9FF89E94FE882EB14F083EB15F084EB65
:206A000016F085EB17F006EBE9FF07EBEAFFEE50116EED50126E00EBF3FF01EBF4FFF350CC
:206A200001E1F4504EE0020EF31801E1F45024E0010EF31846E1F45044E106EBE9FF07EB48
:206A4000EAFF0E0EE926000EEA22EECFCEF6EECFCFF6EECFD0F6EFCFD1F6D950140FE96E5A
:206A6000DACFEAFF0601CE51EE26CF51EE22D051EE22D151EE2225D014EBD2F615EBD3F632
:206A800016EBD4F617EBD5F606EBE9FF07EBEAFF120EE926000EEA220601D251EE5CCE6FB0
:206AA000D351EE58CF6FD451EE58D06FD551EE58D16FCE51146ECF51156ED051166ED151CD
:206AC000176E0301FD5107E073EC2DF0000903E00101090E86D206EBE9FF07EBEAFF020E5B
:206AE000E926000EEA22EE500D6EEE500E6EEE500F6EEF50106E06EBE9FF07EBEAFF060EBA
:206B0000E926000EEA220DEBEEFF0EEBEEFF0FEBEEFF10EBEFFF06EBE9FF07EBEAFF120EDD
:206B2000E926000EEA22EE500D6EEE500E6EEE500F6EEF50106E14500D5C15500E58165043
:206B40000F581750105803E201011F0E4AD206EBE9FF07EBEAFF160EE926000EEA22EF944B
:206B600006EBE9FF07EBEAFF0E0EE926000EEA2214EBEEFF15EBEEFF16EBEEFF17EBEFFF65
:206B800011EBE9FF12EBEAFF180EE926000EEA22EECFE6FFEECFE6FFEECFE6FFEECFE6FF54
:206BA00014EBE6FF15EBE6FF16EBE6FF17EBE6FF4CECD5F0E552E5CFD1F6E5CFD0F6E5CF62
:206BC000CFF6E7CFCEF60601CE51096ECF510A6ED0510B6ED1510C6E11EBE9FF12EBEAFF41
:206BE000180EE926000EEA22EECFE6FFEECFE6FFEECFE6FFEECFE6FF09EBE6FF0AEBE6FF0B
:206C00000BEBE6FF0CEBE6FF26ECD6F0E552E5CFD5F6E5CFD4F6E5CFD3F6E7CFD2F6D9508D
:206C2000140FE96EDACFEAFF0601D251EE5CCE6FD351EE58CF6FD451EE58D06FD551EE58D9
:206C4000D16FCE51146ECF51156ED051166ED151176E06EBE9FF07EBEAFF0C0EE926000E79
:206C6000EA2214EBEEFF15EBEDFF11EBE9FF12EBEAFF210EE926000EEA22EFCFE6FFE66A1B
:206C8000E66AE66A09EBE6FF0AEBE6FF0BEBE6FF0CEBE6FF4CECD5F0E552E5CFD1F6E5CF87
:206CA000D0F6E5CFCFF6E7CFCEF60601CE510D6ECF510E6ED0510F6ED151106E0DEBE6FFC3
:206CC0000EEBE6FF0FEBE6FF10EBE6FF11EBE9FF12EBEAFF210EE926000EEA22EFCFE6FF52
:206CE000E66AE66AE66A26ECD6F0E552E5CFD5F6E5CFD4F6E5CFD3F6E7CFD2F6D950090F5C
:206D0000E96EDACFEAFF0601D251EE5CCE6FD351EE58CF6FD451EE58D06FD551EE58D16FDB
:206D2000CE51096ECF510A6ED0510B6ED1510C6E06EBE9FF07EBEAFF0A0EE926000EEA22FA
:206D400009EBEEFF0AEBEDFF0D500E100F10101001E1E5D00DEBE6FF0EEBE6FF0FEBE6FF86
:206D600010EBE6FF06EBE6FF07EBE6FF1BEC10F046E9136E135001E1D2D03C0E135C01E04E
:206D8000CBD006EBE9FF07EBEAFF160EE926000EEA22EF50010B52E006EBE9FF07EBEAFF26
