:020000040000FA
:0600000076EF07F012008C
:020006000000F8
:0600080004EF08F01200F5
:060018000CEF08F01200DD
:02001E00400E92
:10002000F36E00EE00F00F0E01D81200EA6002D06D
:0E003000EE6AFCD7F350E9601200EE6AFCD7CE
:1000800001017E0E006F016BFC0E026F010E036F0B
:10009000846BC769C869C969C66B9A941200FFDF8F
:1000A0001200D9CFE6FFE1CFD9FF81E941E8F2A400
:1000B00007D0F2940101CA5103E0CA2B01E1EFDF3E
:1000C0000101CB51D75CE83404E2200ED724CB6F7A
:1000D0009174D650016E42E9E7CFD9FF1200D9CF13
:1000E000E6FFE1CFD9FF81E941E8010184511DE13B
:1000F000040108BF19D0400EE66E040EE66E010E34
:10010000E66EE1EC06F043E90101010E846F016A3D
:10011000400E015C09E20150EA6A440FE96E010EEB
:10012000EA22EF6A012AF4D710D101010451080A2A
:1001300001E106D10F0A01E1CDD0010A01E1C2D0EF
:10014000030A75E0010A61E0070A46E0010A01E0DE
:10015000FCD00101CA6B0101020E446F01013A0E8D
:10016000456F0101010E466F0101010E476F01014C
:10017000486B100E496F4A6B4B6B01C14CF102C1C9
:100180004DF103C14EF1100E01014D5F000E010152
:100190004E5B01014F6B0101030E506F0101F80E20
:1001A000516F5269010E536F546B0101080E556F68
:1001B000566B576B586B0101596904010CBF0BD08A
:1001C000400EE66E440EE66E010EE66EB3EC06F0EF
:1001D00043E90101846BB9D0010105510AE1010134
:1001E0007F0E006F0101F80E016F0269010E036FAF
:1001F00009D001017E0E006F0101016BFC0E026F40
:10020000010E036F0101846BA0D00101040E856F04
:10021000010100290101855D07E204009AD84EEC36
:1002200005F00101852BF4D70101846B8ED0E868BD
:100230000101C71905E1E868C81902E1E868C919B0
:1002400006E105C1C7F106C1C8F107C1C9F1C70E72
:10025000E96E010EEA6EEE500101051905E1EE505E
:10026000061902E1EE5007192AE1016A010109515C
:10027000015C25E23A0E0101D88009550124EA6AA1
:100280000A0FE96E010EEA22EF50E66E0101C65137
:10029000EA6A860FE96E010EEA22E552E750EF6E38
:1002A0000101C62B0101C72B000EC823000EC92374
:1002B0003A0E0101C65D01E160D8012AD7D70101DC
:1002C000846B43D05AD80101C769C869C969010163
:1002D000846B3BD00101070E446F05C145F106C197
:1002E00046F107C147F108C148F109C149F105C10B
:1002F000F6FF06C1F7FF07C1F8FF016A01010951C6
:10030000015C0FE209003A0E0101D8800955012471
:10031000EA6A4A0FE96E010EEA22F5CFEFFF012AE1
:10032000EDD704010CBF0BD0400EE66E440EE66E16
:10033000010EE66EB3EC06F043E90101846B05D0D3
:100340006592656A62D8ABDE00D042E9E7CFD9FF9B
:100350001200F66A85C1F7FFF86AD890F736F836CA
:10036000F736F836140EA66EF29E550EA76EAA0E3C
:10037000A76EA682A69404001200D9CFE6FFE1CFB3
:10038000D9FF81E941E8016A0101C651000838E25C
:10039000C6C1DFF10101E06BE16BC70EE96E010E32
:1003A000EA6E0101DF51EE5CF66E0101E051EE589C
:1003B000F76E0101E151EE58F86E0150EA6A860FBE
:1003C000E96E010EEA22EF50F56E0D00012A015090
:1003D000EA6A860FE96E010EEA22EF50F56E0C0014
:1003E000012A240EA66EF29E550EA76EAA0EA76EC7
:1003F000A682020E0101C65D0101C66F0400C4D7CA
:10040000A69442E9E7CFD9FF1200D9CFE6FFE1CFAA
:10041000D9FF81E941E8016AFF0E015C0BE2E8685F
:10042000E85006E0E80600D000D004000000F8D74D
:0C043000012AF2D742E9E7CFD9FF120001
:04043C00D9CFE6FF2F
:10044000E1CFD9FF81E941E8645032E162960401CD
:1004500000513C0BE842E8420D0828E1180E021951
:1004600023E1040E031920E1100E026F040E036F46
:10047000016A080EF36EF46AF350015C000EF45446
:1004800013E20150EA6A180FE96E040EEA22EF50F7
:10049000E66E0150EA6A100FE96E040EEA22E55298
:1004A000E750EF6E012AE5D710D80AD046D808D019
:1004B000040E645C03E162965DD802D0000E01D0A8
:1004C000010E42E9E7CFD9FF1200D9CFE6FFE1CF15
:1004D000D9FF81E941E8040104BF046B0101D46B39
:1004E000CC6BCD6BD26BD36BBDEC03F0016A010E0C
:1004F000F36EF46AF350015C000EF45419E201014A
:10050000CD5116E1F76A0134FE0BF66EF736EA0EAE
:10051000F6260E0EF7220900F5CFDFF10800F5CF21
:10052000E0F1E0C1FAFF0101DF511400012ADFD739
:10053000DAD842E9E7CFD9FF1200020E0101CC5D03
:100540000EE19DD80401180E026F040E036F080E11
:10055000016F00BD02D0C80E0BD0880E09D008D99B
:100560000401080E016F100E026F040E036F8C0E53
:10057000006F1200040E0101D55D0CE112C45EFF94
:100580000F015E51000803E20101050E02D00101D6
:10059000030ED56F0101CC0510E111D8020E010147
:1005A000D45D03E10401840E06D0040104BD02D031
:1005B000C80E01D0880E046F1200B8EF03F0D9CF37
:1005C000E6FFE1CFD9FF81E942E80101080ED25DE3
:1005D000000ED3590DE2D251016ED351026ED451A7
:1005E00002E1010E03D0D40506E1020ED46F03D060
:1005F000080E016E026A0401049304910250041370
:1006000001EB05F401500101D25F0250D35B180EDB
:10061000D06F040ED16F0101D6A317D00150021084
:100620002AE0CEC1F6FFCFC1F7FF0800F550D0C1D8
:10063000E9FFD1C1EAFFEF6E0101D02B000ED123FB
:10064000CE2BCF230106025AE9D70150021013E046
:10065000CEC1E9FFCFC1EAFFEF50D0C1E9FFD1C160
:10066000EAFFEF6E0101D02B000ED123CE2BCF235A
:100670000106025AEAD743E9E7CFD9FF1200D9CFE2
:10068000E6FFE1CFD9FF81E942E8030E040100153E
:10069000026E0151016ED20EE96E010EEA6E010189
:1006A000EE500124D26FED500220D36F180ECE6FA2
:1006B000040ECF6F0150021012E0CEC1E9FFCFC18E
:1006C000EAFFEF50D0C1E9FFD1C1EAFFEF6ED02BB6
:1006D000000ED123CE2BCF230106025AEBD743E9DC
:1006E000E7CFD9FF120065980101CD510BE104015C
:1006F000080E016F100E026F040E036F840E006F60
:10070000040123D0040110AF22D00101D251040111
:10071000165D0101D3510401175904E216C4D2F148
:1007200017C4D3F14CDF0101010ECC6F0401080E98
:10073000016F100E026F040E036F800E006F040134
:10074000180E066F040E076FC80E046F1200010129
:10075000020ECC6F0401056BC80E046F0401080E75
:10076000016F180E026F040E036FC80E006F1200A7
:0A0770000101CC6B0401046B1200C0
:06077A0004011051600BA8
:10078000E842E842E842E842E842000901E012009B
:100790001151070A4BE00B0A49E0070A3AE0010A47
:1007A00027E00B0A23E0020A21E0030A1DE0080A01
:1007B00012E0010A0EE00F0A0AE0030A01E012004B
:1007C0000101010ECD6F0101040ED56F120017EF6C
:1007D00004F06EEF04F00101010ECD6F0101D70EA0
:1007E000CE6F010ECF6F0FD091EF04F0DFEF04F06A
:1007F0000101010ECD6F040114510101CF6BD80F1F
:10080000CE6F010ECF230101D6930101010ED26FED
:1008100012000101010ECD6F04011451EA6AD80FD4
:10082000E96E010EEA2212C4EFFF12001200800EE0
:100830000401105D52E11351030A30E0010A0CE09B
:10084000030A49E10101010ECD6F01012A0ECE6FAD
:100850000E0ECF6F120E3CD00101010ECD6F0401C0
:100860001251F66EF76AD890F636F736E00EF62695
:100870000E0EF7220900F5CFCEF10A00F5CFCFF129
:10088000020E0101F76ACE25F66ECF51F72209005C
:10089000F5CFD2F10A00F5CFD3F11DD00101010E41
:1008A000CD6F04011251F66EF76AD890F636F7361E
:1008B000E40EF6260E0EF7220900F5CFCEF10A005F
:1008C000F5CFCFF1CEC1F6FFCFC1F7FF0800F5504D
:1008D0000101D26FD36B0101D68312000101010E19
:1008E000CD6F0F0EE66E4D0EE66E0F0EE66E16EC39
:1008F00006F043E9010EE66ED80EE66E010EE66ED6
:1009000016EC06F043E912C4D7F10401125104E1D8
:100910000101050ED56F12000101060ED56F9DEF86
:1009200006F00401186B196B040110511F0B020A29
:1009300011E0030A0BE0010A34E10101010ECD6F61
:100940000101D6A12ED0040118832BD00101010E84
:10095000CD6F27D00101010ECD6F040114510F0B93
:10096000080DF3500101E06B000FDF6F040EE02370
:1009700004011451800B01E0010E040DF35001013C
:10098000DF250101D06F000E0101E0210101D16FCF
:10099000D0C1E9FFEA6EEF50040B03E00401010E41
:1009A000186F0101CD050AE10101180ECE6F040E8A
:1009B000CF6F0101D6930101020ED26F1200040124
:1009C000120510E110511F0B00090CE10101010E8D
:1009D000CD6F030E0401115D03E10101D68102D048
:1009E0000101D691040112513BE110511F0B020885
:1009F00037E114510F0B000933E00101010ECD6FF7
:100A0000040114510F0B080DF3500101E06B000FAE
:100A1000DF6F040EE02304011451800B01E0010E8E
:100A2000040DF3500101DF250101D06F000E01011B
:100A3000E0210101D16F030E0401115D02E1840E7A
:100A400003D014AF07D0400ED0C1E9FFD1C1EAFFF7
:100A5000EF6E1200880ED0C1E9FFD1C1EAFFEF6E40
:020A6000120082
:0E0A620065A60DD80101D50509E165BA07D0DA
:100A7000626A0F01110E5C6F0101020ED56F120048
:100A8000656A0F015C6B65860101010ED56F12006E
:100A9000656A0F015C6B0101D56B12000101D55134
:100AA00001E112006250040B05E00F015C51040BE0
:100AB00001E069D865B212006250010B05E00F0138
:100AC0005C51010B01E079D86250100B05E00F0179
:100AD0005C51100B01E022D86250200B05E00F01A1
:100AE0005C51200B01E057D8030E0101D55D01E2F6
:100AF00012000101E26B040EE25D0FE26250080B8E
:100B00000CE00F015C51080B08E01EEC02F000093C
:100B100001E162960101E22BEED71200D9CFE6FF88
:100B2000E1CFD9FF81E941E80F015C51016E0F016E
:100B3000040E5C6F62986582A198A088A150100B8A
:100B400007E1D050080B04E1040051EC00F0F6D7A7
:100B5000A09801500F015C130101D50ED96F020E50
:100B6000DA6F0101D9C1DFF1DAC1E0F1D907000E76
:100B7000DA5B0101DF51E01102E00400F2D742E943
:100B8000E7CFD9FF120065920F015C9562A402D0F5
:100B90006294FCD712000F014CA10DD0800E04010D
:100BA000005D07E1840E0401045D03E104018C0E85
:100BB000006F0F014C91629A1200636A626A0F0122
:100BC0009F0E5D6F0F017B0E5C6F0F015E6B0F0E52
:100BD000E66E4D0EE66E0F0EE66E28D843E90F0165
:100BE000160E4C6F62A605D0629600D000D00000B1
:100BF000F9D76598B8EC03F00401080E016F040101
:100C0000100E026F040E036F04018C0E006F0101C1
:100C1000D6910101D76B0101030ED56F0101F50ECD
:100C2000CA6F450ED76E6B0ED66E1200D9CFE6FF97
:100C3000E1CFD9FF84E901EBE9FF02EBEAFF0050C5
:100C400003E0EE6A0006FBD741E9E7CFD9FF1200C7
:100C5000040110511F0B010801E01200145101E0C2
:100C60001200060E115D28E11351230A23E0010A48
:100C70000FE0030A1FE10101020ECD6F0101D7054C
:100C800005E101014E0ECE6F0E0ECF6F090E0FD093
:100C90000101020ECD6F0101D70505E10101C30E6F
:100CA000CE6F0E0ECF6F0101D70504E11D0E0101BD
:100CB000D26FD36B0101D68304011051600BE8425F
:100CC000E842E842E842E842010801E0120011511E
:100CD0000B0A2BE0080A1BE0090A13E0080A09E0E6
:100CE0000B0A05E0080A01E012009BEF06F09CEFFA
:100CF00006F00101020ECD6F0101DC0ECE6F010E78
:100D00000DD00101020ECD6F13C4DCF11200010100
:100D1000020ECD6F0101DD0ECE6F010ECF6F01010E
:100D2000D6930101010ED26F12000101020ECD6FA8
:100D300012C4DDF11200120012000101DE6B0F017E
:100D40001E0E4D6F0401400E096F200E0A6F040E37
:100D50000B6F880E086F0401600E0E6F040E0F6F8C
:100D6000400E0C6F1200D9CFE6FFE1CFD9FF84E926
:100D700041E80050400802E2400E006E046A005054
:100D8000045C13E204500124E96E000E0220EA6EB6
:100D9000EF50E66E0450EA6A600FE96E040EEA2234
:100DA000E552E750EF6E042AEAD700EB0DF4400E4F
:100DB00004010C170C7D880E0C1342E9E7CFD9FF14
:100DC0001200D9CFE6FFE1CFD9FF84E90101DE6B44
:100DD000040108BF24D00050095D02E20951006EF1
:100DE0000101DE6B0050DE5D13E2DE51EA6A200F86
:100DF000E96E040EEA22EF50E66EDE510124E96E40
:100E0000000E0220EA6EE552E750EF6EDE2BEAD7C5
:100E10000401400E096F0817087D880E08130101B0
:0A0E2000DE5141E9E7CFD9FF1200CF
:060E2A00120100020000AD
:100E30000008D8043C000200010200010902290058
:100E4000010100C032090400000203000000092172
:100E500011010001221D0007058103400001070563
:100E600001034000010403090434034D00690063D9
:100E70000072006F00630068006900700020005479
:100E8000006500630068006E006F006C006F006713
:100E9000007900200049006E0063002E0026034800
:100EA0000049004400200055005300420020004249
:100EB000006F006F0074006C006F006100640065DB
:100EC0000072000600FF0901A10119012940150067
:100ED00026FF00750895408100190129409100C046
:0C0EE0003C0E3C0E650E690E9D0E500C81
:040EEC00FC50FC9E1C
:100EF00002E700EF08F01EEE00F02EEE00F0F86AB8
:100F00000101FE0ECA6FED0ED76E570ED66E870E1C
:100F1000D56ED0B802D00101CA6B12D8040031ECF2
:100F200005F04EEC05F0060E0101D55D05E16550BA
:100F3000020B02E16FEC00F051EC00F0EFD7120071
:100F4000600ED36E9B8C0101580ED96F020EDA6FC2
:100F50000101D9C1DFF1DAC1E0F1D907000EDA5B96
:100F60000101DF51E01102E00400F2D765A604D0D0
:100F70006592656A05EC02F00F01140E5F6F0101C6
:100F8000D56B0101D66B0101D76B40EC00F0C08836
:0A0F9000C16AC26AC098C08E120048
:020000040001F9
:01FFF800EC1C
:01FFF900F710
:01FFFA00C541
:01FFFB00FD08
:01FFFC00F80C
:01FFFD00FE05
:00000001FF
